:100000000C946B030C94A3030C94A3030C94A30310
:100010000C94A3030C94A3030C94A3030C94A303C8
:100020000C94A3030C94A3030C943B1C0C94F71B9B
:100030000C948E1D0C94A3030C94A3030C94A303A3
:100040000C94A3030C94A3030C94A3030C94A30398
:100050000C94A3030C946A1D0C94A3030C94A303A7
:100060000C94A3030C94A3030C94A3030C94A30378
:100070000C94A3030C94A3030C94A3030C94A30368
:100080000C94A3030C94A3030C94A3030C94A30358
:100090000C94A3030C94A3030C94A3030C94A30348
:1000A0000C94A3030C94A3030C94A3030631FF093F
:1000B00074A1010975150026FF00952075088102BD
:1000C0000976150026FF00952075089102C00501EC
:1000D0000902A10185020901A100050919012908E8
:1000E00015002501950875018102050109300931C6
:1000F0001581257F95027508810609381581257FB0
:10010000950175088106050C0A38021581257F9531
:100110000175088106C0C005010980A10185031988
:10012000012AB700150126B700950175108100C09E
:10013000050C0901A101850419012AA00215012657
:10014000A002950175108100C005010906A1018575
:1001500006050719E029E7150025019508750181B5
:10016000020507190029EF1500250195F075018199
:10017000020508190129059505750191029501757A
:10018000039101C00660FF0961A101096215002603
:10019000FF009520750881020963150026FF009570
:1001A0002075089102C005010906A101050719E0A3
:1001B00029E715002501950875018102950175084B
:1001C00081010507190029FF150026FF0095067516
:1001D0000881000508190129059505750191029509
:1001E0000175039101C00000000000000000000044
:1001F00000000000000000000000000000000000FF
:10020000000000000000000000007E0F00D4FFFF8F
:10021000FFC70000007800000000000000002A2B4B
:1002200028000000000000000000000000000000A6
:100230000029000000002C1E34202122243426270F
:10024000252E362D3738271E1F2021222324252630
:100250003333362E37381F0405060708090A0B0CFE
:100260000D0E0F101112131415161718191A1B1C46
:100270001D2F3130232D350405060708090A0B0C04
:100280000D0E0F101112131415161718191A1B1C26
:100290001D2F3130354C44454255473A206469732F
:1002A00061626C65642E0A0044454255473A2065F8
:1002B0006E61626C65642E0A004F6E6573686F74C0
:1002C0003A206163746976653A2025640A000A0061
:1002D0002530325820006B6579626F6172645F72FD
:1002E00065706F72743A20005B735D000A00253000
:1002F000313662003A200025303258000A722F63EE
:100300002030313233343536373839414243444571
:10031000460A000A0025303258006C65645F74613B
:10032000736B3A2000290A002575002F00257500FF
:100330005D2800256400200025640020002564005D
:1003400020002564007C0025303258006D6F7573E5
:10035000656B6579205B62746E7C782079207620ED
:10036000685D287265702F61636C293A205B0029F3
:10037000001E001F00200021002200230024002571
:1003800000260027002D002E002A00A8002B0014B4
:10039000001A000800150017001C0018000C0012BD
:1003A0000013002F00300031004C0039000400160B
:1003B00000070009000A000B000D000E000F0033BB
:1003C00000340028002A004A00E100E1001D001B63
:1003D0000006001900050011001000360037003833
:1003E00000E50052004D00E000E300E200A9002C0F
:1003F00000AA002C0000002C000000E6000158506C
:100400000051004F0035003A003B003C003D003EEB
:10041000003F00400041004200430044004500010D
:1004200000AE000100010001000100010001000117
:1004300000010001000100010001000100005C4911
:1004400000010001000100010001000100010001A4
:10045000000100010001000100010001004B00014A
:100460000001000100010001000100010001000184
:1004700000010001000100010001004E0001000127
:10048000000100AB000100AC000100000001000011
:100490000001000100010001000100010001000154
:1004A0000001000100010001000100010001000144
:1004B0000001000100010001000100010001000134
:1004C0000001000100010001000100010001000124
:1004D0000001000100010001000100010001000114
:1004E0000001000100010001000100010001000104
:1004F00000010001000100010001000100010001F4
:1005000000010001000100010001000100010001E3
:1005100000010001000100010001000100010001D3
:1005200000000001000000010001000100010001C5
:1005300000010001000100010001000100010001B3
:1005400000010001000100010001000100010001A3
:100550000001000100010001000100010001000193
:100560000001000100010001000100010001000183
:100570000001000100010001000100010001000173
:100580000001000100010001000100010001000163
:100590000001000100010001000100010001000153
:1005A0000001000100010001000100010001000143
:1005B0000001000100010000000100000001000135
:1005C000000100010001006164645F6B65795F6296
:1005D00069743A2063616E2774206164643A20254F
:1005E0003032580A0064656C5F6B65795F626974CC
:1005F0003A2063616E27742064656C3A202530329E
:10060000580A005B435D005B445D005B535D005B2B
:10061000575D005B525D0009027B00040100A0FAF7
:100620000904000001030101000921110100012258
:1006300040000705810308000109040100020300CE
:100640000000092111010001222200070582032078
:100650000001070503032000010904020001030053
:10066000000009211101000122B6000705840320C2
:100670000001090403000203000000092111010028
:10068000012222000705850320000107050503203C
:10069000000112010002000000086C80050001004A
:1006A0000102000118037A006F006F006D00360030
:1006B00035005F006C0069007400650000001203E3
:1006C0006D0065006C0065007400720069007800C0
:1006D00000000403090411241FBECFEFDAE0DEBFDF
:1006E000CDBF04B603FE18C080919302909194028E
:1006F000A0919502B09196028730904BA740B04BE5
:1007000059F4109293021092940210929502109252
:100710009602E0E0F8E3099511E0A0E0B1E0E4EB37
:10072000F7E402C005900D92AA37B107D9F722E08D
:10073000AAE7B1E001C01D92A339B207E1F70E9418
:10074000B51D0C94AF230C940000FF93EF93E09140
:100750007A01F0917B01309709F00995EF91FF91B3
:100760000895FC018591803011F0EFDFFBCF0895F3
:10077000FF27E0E230E247FF0CC0419597FF09C038
:10078000EDE26095709580959095611D711D811DBC
:10079000911D27FF02C0219530E350E2AA27660F82
:1007A000771F881F991FAA1FA41710F0A41B639519
:1007B0005A95A9F7AA3008F0A95FA05DAF93F39509
:1007C000611571058105910541F7ED3211F4EF9343
:1007D000F395F21718F43F93F395FBCF8F91B5DFA4
:1007E000FA95E1F70895E991F9918591803021F02A
:1007F000853219F0AADFF9CF089520E0E8945591E9
:100800005532C1F3503311F4689455915A3348F47A
:10081000505390F3220F022E220F220F200D250F8E
:10082000F4CF0EF4219589919991533619F35337EA
:1008300029F1533559F1BC0188279927E8945C3692
:1008400021F48991999168945591543639F446EF81
:100850007EF077FF0DC08FEF9FEF0AC055374AE05B
:1008600039F0583540E121F0523642E009F0089560
:10087000FF93EF937DDFEF91FF91B7CFFF93EF935E
:10088000FC0181918030B9F360DFFBCFFF93EF93E0
:1008900068DFF1CFDF93CF93CDB7DEB72596A3DF27
:1008A000CF91DF910895E8EDF0E080818E7F808325
:1008B0001092E2001092DA001092E100A0EEB0E097
:1008C0008C9181608C9380818F77808319BCA7ED98
:1008D000B0E08C918E7F8C9380818F7E808310928C
:1008E000600208952091E4003091E50095E6A901A9
:1008F0002091EC00822F817020FF06C08091E800DB
:1009000080FF06C080E008952091E80022FD1AC013
:1009100080918502882389F0853089F08091EB00F1
:1009200085FD0FC02091E4003091E5004217530788
:10093000F9F29150E1F684E0089582E0089583E0B1
:10094000089581E00895EF92FF920F931F93CF9344
:100950007C018B010E947204C82F811117C0809105
:10096000E80085FD0BC08091E8008E778093E80059
:100970000E947204882399F3C82F08C0F70181915F
:100980007F018093F1000150110949F78C2FCF911D
:100990001F910F91FF90EF9008958091870287FF3C
:1009A00013C08091E80082FF06C08091E8008B7739
:1009B0008093E80004C0809185028111F2CF0895F0
:1009C000809185028823D9F38091E80080FFF8CFD9
:1009D0008091E8008E77ECCF982F9093E900242F38
:1009E000762F50E0891731F07091EC002091ED00E6
:1009F0005091F00021FD07C09F5F973071F7809301
:100A0000E90081E008953091EB003E7F3093EB00E8
:100A10003091ED003D7F3093ED003091EB0031607F
:100A20003093EB007093EC002093ED005093F000B6
:100A30002091EE0027FDE0CF80E00895B0E0A0E037
:100A4000E4E2F5E00C941F23C8EDD0E088818F7EAE
:100A50008883E7EDF0E080818160808384E082BF5D
:100A600081E08093600288818E7F888302EE10E0AF
:100A7000F80110821092DA0081EEC82ED12CF60116
:100A8000108288818F7788838881806888838881B5
:100A90008F7D888319BC1092850210928602109275
:100AA00084021092830290EEE92EF12CF7018081EE
:100AB0008B7F808388818160888342E060E080E072
:100AC0000E94EC04F60180818E7F8083F801808192
:100AD00081608083808188608083F70180818E7F40
:100AE0008083888180618883CDB7DEB7E8E00C948D
:100AF0003B23FC0180918D0290918E02861797070F
:100B0000A0F06115710529F49091E8009E7790930B
:100B1000E80090E06115710551F4911108C08091D1
:100B2000E80082FF34C080E00895BC01F2CF8091DC
:100B300085028823C1F18530C1F18091E80083FDF1
:100B400030C08091E80082FDEACF8091E80080FF0C
:100B5000E1CF8091F3002091F200382F61157105EB
:100B600019F02830310558F091E02830310509F0AE
:100B700090E02091E8002E772093E800CBCF819180
:100B80008093F100615071092F5F3F4FE7CF809153
:100B90008502882341F0853041F08091E80083FF91
:100BA000BECF81E0089582E0089583E0089508951E
:100BB0008091620208959C014FB7F894809154028D
:100BC00090915502A0915602B09157024FBF821BDF
:100BD000930B08952FB7F894809154029091550289
:100BE000A0915602B09157022FBF08952091500254
:100BF000309151022817390771F090935102809378
:100C00005002E0914E02F0914F02309721F00084A3
:100C1000F185E02D0995089520914C0230914D0207
:100C20002817390771F090934D0280934C02E091A0
:100C30004E02F0914F02309721F00680F781E02DAF
:100C400009950895E0914E02F0914F02309729F0F6
:100C50000190F081E02D0995089580E0089540917C
:100C60004802803F59F48091490287FF0DC01092DD
:100C7000490241110BC01092410208C0813F81F42A
:100C80008091490218169CF3442381F080914A0216
:100C900090914B02892B09F05AC010923F0208959F
:100CA000823F49F447FFF0CF1092480280914902F9
:100CB0008111ECCFE0CF833F19F41416ACF3E4CFED
:100CC00090914A02893F29F41916F4F610924A02CB
:100CD000DBCF8A3F19F497FFD7CFF8CF90914B0223
:100CE0008B3F29F497FFD0CF10924B02CDCF8C3F92
:100CF00019F41916CCF3C8CF9CE0980F953090F4F6
:100D0000845F990B21E030E0B90102C0660F771FC4
:100D10008A95E2F7CB0180959091470289238093D1
:100D20004702B2CF8D3F31F4809140028E7F809395
:100D30004002AACF8E3F21F4809140028D7FF7CFF1
:100D40008F3F09F0A1CF809140028B7FF0CF0895B3
:100D50008091400280FD16C081FD16C082FD16C044
:100D600080913F028823A1F0883280F428E0829F9E
:100D7000C001112468E270E00E94F422862F672BE4
:100D800039F0089582E0089584E0089588E0089598
:100D900081E008958091400280FD14C081FD14C05F
:100DA00082FD16C080914102882381F08E3180F44B
:100DB00020E5829FC00111246EE170E00E94F422C0
:100DC000862F089584E1089588E2089588E00895C3
:100DD00080E50895803F31F40E94CA068195809392
:100DE00049020895813F19F40E94CA06F8CF823F54
:100DF00031F40E94CA068195809348020895833F8A
:100E000019F40E94CA06F8CF893F29F40E94A80667
:100E100080934A0208958A3F21F40E94A806819592
:100E2000F7CF8B3F31F40E94A806819580934B0247
:100E300008958C3F19F40E94A806F8CF9CE0980F03
:100E4000953070F4845F990B21E030E001C0220FEF
:100E50008A95EAF780914702822B80934702089592
:100E60008D3F31F48091400281608093400208956B
:100E70008E3F21F4809140028260F7CF8F3FB9F717
:100E8000809140028460F1CFF894E82FE295EF70F2
:100E9000F0E031A1282F2F7081E090E001C0880F91
:100EA0002A95EAF7982F9095932391A392A1892BE5
:100EB00082A3789408959091580292FF06C0282F3B
:100EC00028712830F9F4877F846093FF06C0282FAB
:100ED00028712831F1F4877E84612091590220FF26
:100EE00006C0382F38713830D9F4877F816021FFF0
:100EF00006C0282F28712831D1F4877E816194FDA6
:100F0000877E0895282F24712430F9F68B7F88601E
:100F1000DCCF282F2471243101F78B7E8861DDCF4F
:100F2000382F3171313019F78E7F8860E0CF282F4C
:100F30002171213121F78E7E8861E1CFCF93DF933C
:100F4000EC0182389105A9F1D8F58133910509F4B6
:100F500096C048F58932910509F48AC08A9709F448
:100F600095C0C11521E5D20708F0BCC0C11530E518
:100F7000D30708F014C1C83ED10508F09CC0C03E9C
:100F8000D10560F5C83AD10508F087C0C53AD1054A
:100F900008F0FDC0C130D10509F12097F9F0C43047
:100FA000D105E0F440C08533910509F45AC0C997D2
:100FB000C1F680915802837089F0C0EED0E00EC077
:100FC000833E910599F170F4803E910501F1823ED6
:100FD000910539F68091580282FD21C0CE01DF9142
:100FE000CF910895863E910561F1873E910571F19B
:100FF000843E910509F0B5CF8091590281FFEECF73
:1010000080915802C7EED0E084FD0DC0E7CF8091FB
:10101000580280FD12C19091590290FFDFCFC3EEBC
:10102000D0E084FFDBCFD0E0C0E0D8CF8091580281
:1010300082FD06C19091590290FDBFCF84FFCECFB3
:10104000F2CF8091580283FDDDCFC8CF8091580246
:1010500083FDF9C09091590291FFF0CFC4EED0E02A
:10106000BDCF8091580285FFB9CFC9E2D0E0B6CF9D
:101070008091580285FFB2CFC5E3D0E0AFCF809119
:10108000580286FFABCFCAE2D0E0A8CF80915802C9
:1010900086FFA4CFC1E3D0E0A1CFCF3BD10518F6A6
:1010A000C85AD0E0CC0FDD1FC05FDE4F0990D88159
:1010B000C02DD46493CFC11540E2D40758F4C115B4
:1010C00081E0D80708F08ACFC03FD10508F4ABCF44
:1010D000D06584CFC11590E4D90708F4A4CFDF70A0
:1010E000D06A7CCFC11525E5D20700F5C11534E5DE
:1010F000D30708F08AC0C11543E5D40708F071C0D2
:10110000C11582E5D80708F467C0CE01837099271E
:1011100021E030E002C0220F331F8A95E2F7C69526
:10112000C69580E2C89FE001112452C0C11599E51F
:10113000D907A8F4C11528E5D20708F06BC0C1157E
:1011400036E5D30708F06FCF8C2F0E945B07C82FBE
:10115000D0E0DC2FCC27CC27DF71D0623FCFC11588
:101160004AE5D40708F45BC0CE0190568115904241
:1011700008F059CF8D2F8F710E945B0790E0982F58
:10118000882788279F719C012C2BE901E6CFC55A3F
:10119000D0E0C35FDE4FC881D0E0D0641FCFCE0166
:1011A000E4E096958795EA95E1F783702C2F2695D4
:1011B0002695237040E2249F90011124382B8C2F18
:1011C0008370C1E0D0E002C0CC0FDD1F8A95E2F74A
:1011D000C22BD32BDC6802CFDC2FCC27C16FD06AA7
:1011E000FDCECE018370992721E030E002C0220FAE
:1011F000331F8A95E2F7C695C69590E2C99FE00134
:101200001124C22BD32BDA68E9CEDC2FCC27C46F94
:10121000D06AE4CEDC2FCC27C06FD06ADFCE8C2F13
:101220008F700E945B0734E0D695C7953A95E1F739
:10123000CF709C2FEC01D069D1CEC9E3D0E0CECEE7
:10124000C2EED0E0CBCEC6EED0E0C8CE8091160282
:10125000811110921602089580959091150298239D
:101260009093150208958091F2019091C101981315
:1012700001C008958F5F8770FACF292F953078F5D8
:101280008F3068F590E03FE0239F800D911D112481
:10129000682F677023E0969587952A95E1F7FC0102
:1012A000EE0FFF1FE80FF91FE356FE4F50E040E03E
:1012B00080E0219130E0062E02C0369527950A94F1
:1012C000E2F721703327042E01C0220F0A94EAF7B7
:1012D000822B4F5F5F4F4330510559F7089580E0EF
:1012E0000895292F953098F58F3088F590E03FE0EC
:1012F000239F800D911D1124282F277041E001C0EC
:10130000440F2A95EAF723E0969587952A95E1F709
:10131000FC01EE0FFF1FE80FF91FE356FE4F30E010
:1013200020E070E05191DF011197CB01022E02C045
:10133000969587950A94E2F7817081958527842395
:1013400085278C932F5F3F4F2330310559F7089540
:1013500081FD02C08F9A08958F980895829590E03C
:101360009C01220F331F220F331F2C7C95958795EC
:10137000959587958373282B30E0C901880F991FB5
:101380008A7A359527952575822B08959FB7F8940D
:1013900010925E029FBF90918502943009F048C080
:1013A0002091E9002F703091EC00932F917030FD67
:1013B00090E8922B25E02093E9002091EB0020FF9C
:1013C00034C02091EE0027FF30C020915D0222231F
:1013D00021F02091E80025FF28C010925D0226E050
:1013E0003091E80035FF14C08093F1008091E8004F
:1013F00085FD27C08091E80080FFFCCF8091E80048
:101400008E778093E8009F709093E90080E00895C4
:1014100030918502343049F43091EB0035FD05C040
:10142000215041F481E080935D029F709093E90028
:101430008FEF0895EFE9FFE03197F1F700C000006A
:10144000CFCF8FB7F89421E020935E028FBFDBCF20
:1014500080935A0270935C0260935B0280918502D4
:101460008430F9F48093E9008FEF9091E800815087
:1014700095FD06C095ED9A95F1F700008111F5CF25
:101480008091E80085FF0DC050E040E063E070E02F
:101490008AE592E00E94A3048091E8008E77809311
:1014A000E8000895BC0184E00E94280A0895BC0168
:1014B00083E00E94280A08959C0184E08093E9005B
:1014C0009FEF8091E800915085FD06C085ED8A95DB
:1014D000F1F700009111F5CF8091E80085FF0CC075
:1014E00050E040E066E070E0C9010E94A3048091F2
:1014F000E8008E778093E8000895CF93DF93EC01A6
:1015000080910C018823B1F18091580287FF32C08D
:1015100060E284E08093E9008FEF9091E8008150D1
:1015200095FD06C095ED9A95F1F700008111F5CF74
:101530008091E80085FF1BC080910C0170E050E0B5
:1015400040E0811104C050E040E068E070E0CE016E
:101550000E94A3048091E8008E778093E80080E2E7
:10156000FE01A3E6B2E001900D928A95E1F7DF91CA
:10157000CF91089568E081E0CDCF81E08093E000D5
:1015800080E28093D8001092C9008FE19EE4019719
:10159000F1F700C0000087E090EBDC01809393023C
:1015A00090939402A0939502B093960288E19CE0F8
:1015B0000FB6F894A895809360000FBE90936000DA
:1015C000FFCF20910C01222351F12091580227FFD7
:1015D00026C0E62FE695E695E695EE3178F4E80F1D
:1015E000F92FF11D677021E030E001C0220F6A95EC
:1015F000EAF7209582812823228308958091520260
:1016000080FF19C01F926F9385EE95E09F938F9393
:101610000E944A040F900F900F900F900895FC01C4
:10162000329608962191621303C0DF0111971C9234
:10163000E817F907B9F7089520910C01222349F121
:101640002091580227FF25C0E62FE695E695E695FE
:10165000EE3170F4E80FF92FF11D677021E030E0F2
:1016600001C0220F6A95EAF78281822B8283089556
:101670008091520280FF1EC01F926F9387EC95E00D
:101680009F938F930E944A040F900F900F900F909A
:101690000895FC0132962FEF30E04191641751F02C
:1016A0002F3F19F4411101C0232F3F5F3630A9F7B6
:1016B0002F3F09F40895820F911D27FD9A95FC0193
:1016C000628308958091520283FF7EC08CE493E090
:1016D0000E94B103809147021F928F9387E493E0A9
:1016E0009F938F930E944A0485E493E00E94B10384
:1016F00080914802282F082E000C330B3F938F93C4
:1017000082E493E09F938F930E944A0480E493E0E5
:101710000E94B10380914902282F082E000C330B40
:101720003F938F938DE393E09F938F930E944A049E
:101730008BE393E00E94B10380914A02282F082E88
:10174000000C330B3F938F9388E393E09F938F9329
:101750000E944A0486E393E00E94B10380914B0209
:10176000282F082E000C330B3F938F9383E393E0D5
:101770009F938F930E944A0480E393E00E94B103F9
:10178000809141021F928F938DE293E09F938F93FC
:101790000E944A048BE293E00E94B10380914002D0
:1017A0001F928F9388E293E09F938F930E944A0445
:1017B00085E293E00E94B1038DB79EB74C960FB6B9
:1017C000F8949EBF0FBE8DBF0E94EA059C019091C8
:1017D000480280914902982B21F0309345022093D2
:1017E000440290914A0280914B02982B21F0309351
:1017F000430220934202E0914E02F0914F02309753
:1018000049F082E0809346020480F581E02D86E471
:1018100092E009950895CF93DF93CFE7D2E060E09F
:10182000CE010E946E232196C11584E0D807B9F736
:10183000DF91CF9108951F93CF93DF93122F8430C0
:10184000E0F46530D0F44F30C0F4C42FD0E0CC0FBA
:10185000DD1F9EE1699FC00DD11D112496E9899F6E
:10186000C00DD11D1124632FCE0187960E946E23D7
:10187000612FCE0188960E946E23DF91CF911F9138
:101880000895AF92BF92CF92DF92EF92FF921F9393
:10189000CF93DF938FE6C82E83E0D82ED0E0760179
:1018A000C0E014C0F50125913491412F6C2F8D2F8C
:1018B0000E941B0C82E0A80EB11C1F5F1F3091F725
:1018C0008EE1E80EF11CCF5FC53019F0570110E032
:1018D000E9CFDF5F86E9C80ED11CD43001F7DF9174
:1018E000CF911F91FF90EF90DF90CF90BF90AF907E
:1018F0000895CF93C82F6FEF811162E283E290E0E9
:101900000E946E236FEFC11168E084E290E00E94B4
:101910006E236FEFC11163E285E290E00E946E23B7
:10192000CF91089580E00E94790C60E086E290E01B
:101930000E946E230E94410C0E940B0C81E00E94C9
:10194000790C08950F931F93CF93DF93843030F574
:10195000653020F54F3010F5C42FD0E0CC0FDD1FDF
:101960002EE1629FC00DD11D112436E9839FC00D69
:10197000D11D1124CE0187960E946023082F10E00C
:10198000102F0027CE0188960E9460239801282BF3
:10199000C901DF91CF911F910F91089590E080E0F0
:1019A000F8CF462F843040F4753030F46F3020F497
:1019B000672F0E94A20C089590E080E00895CF92D6
:1019C000DF92FF920F931F93CF93DF936C010091EF
:1019D0008F0280911702082BC7E0D0E010E0FC2EA8
:1019E000C8010C2E02C0959587950A94E2F780FDF8
:1019F0000CC02197A0F7F12C8F2DDF91CF911F9173
:101A00000F91FF90DF90CF900895B6018C2F0E9428
:101A1000D10C0E949E07019761F3EECFCF93DF9325
:101A2000EC010E94DF0CBE010E94D10C0E949E07B7
:101A3000DF91CF910895FC01808191810E940E0D6C
:101A400092959F70963091F058F4925F9F7092300B
:101A500058F4803F19F030F4883E30F481E0089566
:101A60009A5FF4CF843FD1F380E00895883EB0F3CD
:101A7000813FD1F7F3CF83E290E00E94602382326E
:101A800089F484E290E00E946023883059F485E272
:101A900090E00E94602391E0833209F090E0892F6A
:101AA0008170089580E0FCCFCF9384E090E00E94A5
:101AB0006023C82F82E290E00E946023982F8C2F31
:101AC000CF9108950F931F93CF93DF9380911502C9
:101AD00090911402892B80937C0190911602992396
:101AE000B1F0892B80937C0180910C01882309F44B
:101AF0006FC08091580287FF6BC08EE1EEE7F1E086
:101B000090E0815008F066C091110E94260940E2E1
:101B100050E064EF71E08CE791E00E94A223892BF2
:101B200009F451C080E2ECE7F1E0A4EFB1E00190EC
:101B30000D928A95E1F7E0914E02F0914F023097B5
:101B400009F441C080910C01882359F0809158021A
:101B500087FF07C080917C0180937D0186E08093A0
:101B60007C010280F381E02D8CE791E00995809162
:101B7000520282FF28C080FF04C086ED92E00E94DE
:101B8000B103D0E0C0E000ED12E08091520280FF8E
:101B90000EC0FE01E458FE4F80811F928F931F9369
:101BA0000F930E944A040F900F900F900F90219670
:101BB000C830D10551F78091520280FF04C08EECED
:101BC00092E00E94B103DF91CF911F910F91089590
:101BD00086E094CF2191222309F493CF9F5F91CF88
:101BE00090E080E00E940C0690E080E00E94F60504
:101BF000109214020E94620D86E0E6E4F2E0DF013A
:101C00001D928A95E9F71092410210923F021092BC
:101C100040020E94620B089580938F020E94F00D93
:101C2000089580918F02982F9670963021F48860E5
:101C30000E940C0E0895877FFBCF21E030E001C0A9
:101C4000220F8A95EAF7209580918F0282230E94C5
:101C50000C0E08959091F301809589238093F301F0
:101C6000282F277091F4282F082E000C330B921781
:101C7000130659F09091590292FF07C085958595FA
:101C800085950E941D0E1092F3010895CF93DF9366
:101C9000D82FC0915902C2FB882780F98D1711F106
:101CA000D0FBC2F9C09359026091580284E090E0E1
:101CB0000E946E236C2F82E290E00E946E2382E0ED
:101CC0000E942A0E8091520280FF0CC01F92DF9367
:101CD00089EB92E09F938F930E944A040F900F909C
:101CE0000F900F90DF91CF91089521E030E001C077
:101CF000220F8A95EAF780918F02822B0E940C0EA8
:101D00000895809317020E94F00D0895882321F012
:101D10000E942C090E94620D0895882339F0909149
:101D20001502982B909315020E94620D0895882346
:101D300091F19CEF980F913A40F4682F8CE791E075
:101D40000E94E10A0E94620D089590E2980F983077
:101D500050F4877091E001C0990F8A95EAF7892FB6
:101D60000E942C09EFCF9BE5980F933028F490E068
:101D700080E00E940C06089598E5980F973128F4AA
:101D800090E080E00E94F6050895803F20F00E94D8
:101D90002F060E94620B0895CF93C82F8823D9F194
:101DA0008CEF8C0F813AC8F580910C01882311F1DA
:101DB0008091580287FF1EC0EC2FE695E695E695C8
:101DC000F0E0E458FE4F828190E04C2F477021E014
:101DD00030E002C0220F331F4A95E2F7822393239B
:101DE000892B91F06C2F8CE791E00E94E10A0E9410
:101DF000620D0AC0EEE7F1E084E891E02191C2179C
:101E000089F38E179F07D1F76C2F8CE791E00E9422
:101E10001C0B0E94620DCF91089580E28C0F8830D8
:101E200068F4C77021E030E001C0220FCA95EAF7DC
:101E300080911502822B80931502EBCFEBE5EC0F1E
:101E4000E33040F4F0E0E35FFE4F808190E00E94D9
:101E50000C06E1CFE8E5EC0FE73150F4F0E0EE0FCF
:101E6000FF1FE05FFE4F808191810E94F605D3CF76
:101E7000C03F88F28C2F0E94EA060E94620BCBCFF3
:101E80001F93CF93DF93182FD0E0C0E0893311F474
:101E9000C0E5D0E0812F0E94CC0E209739F4812F2D
:101EA0000E94970EDF91CF911F9108958FE99FE0D7
:101EB0000197F1F700C000002197EFCF0F931F9318
:101EC000CF93DF93C62FD42F022FFC01828188236A
:101ED000A9F0609392020E94EA0590939102809388
:101EE0009002C77081E001C0880FCA95EAF70E948E
:101EF0008D0EDF91CF911F910F91089580919202E5
:101F0000681332C080919002909191020E94DB058B
:101F1000883C910548F510E21D0FCD17B9F080E21D
:101F20008C0F883040F4C77081E001C0880FCA95DB
:101F3000EAF70E94860E183048F481E09D2F9770D2
:101F400001C0880F9A95EAF70E948D0E802F0E949B
:101F5000400F183070F6D77081E001C0880FDA9515
:101F6000EAF70E94860EC5CFC77081E001C0880FD6
:101F7000CA95EAF7F6CF1092150280910C01EEE7B0
:101F8000F1E0882361F08091580287FF08C08EE15C
:101F9000DF011D928A95E9F70E94F00D089586E011
:101FA000F7CFAAE2B0E0E7EDFFE00C94242387E846
:101FB00092E02091F100DC012D93CD01B2E08F3849
:101FC0009B07B9F780918802833009F472C0B8F496
:101FD000813009F449C0823009F4B3C08091E8002F
:101FE00083FF91C280918702909188029A3008F015
:101FF0008AC2E92FF0E0EF54FC4D0C9408238A309C
:1020000009F48EC08B3009F471C0893039F78091A2
:102010008702813219F780918B0290918C02009790
:1020200011F00297D9F68091E800877F8093E8004D
:102030008091E80082FF38C09091F3008091F20017
:10204000029731F48091F100813011F0863021F453
:102050008091F100809362028091E8008B778093F9
:10206000E8000E94CD04BACF80918702813A09F03E
:10207000B5CF8091E800877F8093E80080918B0244
:1020800090918C02892B61F460E283E692E070E02B
:102090000E9479058091E8008B778093E8009ECFBD
:1020A00060E090E080E0F3CF809185028111C0CFA5
:1020B00095CF80918702813A09F090CF80918B0271
:1020C00090918C02892B09F089CF8091E800877F5D
:1020D0008093E8008091E80080FFFCCF80910C01A4
:1020E0008093F1008091E8008E77B9CF80918702CC
:1020F000813209F073CF80918B0290918C02892BF1
:1021000009F06CCF8091E800877F8093E8000E94FF
:10211000CD048091890280930C010E94BB0F5ECF99
:1021200080918702813209F059CF8091E800877F42
:102130008093E8000E94CD0480918A02809361021E
:102140004DCF80918702813A09F048CF8091E80015
:10215000877F8093E8008091E80080FFFCCF80912A
:102160006102BECF803899F0823809F0CCC18091ED
:102170008B028F70873008F0C6C18093E900809190
:10218000EB0085FB882780F91092E90006C080915A
:10219000830290918402911182609091E800977F70
:1021A0009093E8008093F1001092F1008091E80094
:1021B0008E77A5C1882309F493C1823009F0A3C1A9
:1021C00080918902811196C180918B028F702FEFCF
:1021D000280F263008F097C18093E9002091EB008A
:1021E00020FF88C1933031F48091EB0080628093AE
:1021F000EB0080C19091EB0090619093EB0021E0A7
:1022000030E001C0220F8A95EAF72093EA0010928D
:10221000EA008091EB008860EACF811174C11091CF
:1022200089021F778091E3008078812B8093E300FF
:102230008091E800877F8093E8000E94CD04809120
:10224000E80080FFFCCF8091E30080688093E3008A
:1022500082E0111183E08093850255C1805882305D
:1022600008F051C12091890230918A022C3DE3E0AF
:102270003E07A1F583E08A838AE289834FB7F89409
:10228000DE01139620E03EE051E2E32FF0E05093B0
:102290005700E49120FF03C0E295EF703F5FEF70BD
:1022A0008E2F90E0EA30C0F0C7968D939D932F5FFC
:1022B000243159F74FBF8091E800877F8093E80071
:1022C0006AE270E0CE0101960E9479058091E800F3
:1022D0008B778093E80017C1C096E7CF80918B027F
:1022E00090918C02432F55274330510509F44AC081
:1022F00078F54130510509F47AC08BE790E0E7E1C9
:10230000F6E04230510509F0FEC02091E800277F39
:102310002093E80020918D0230918E02821793075E
:1023200008F49C0140E02115310509F065C0411118
:1023300063C08091E80082FDC9CF80918502882327
:1023400029F2853019F28091E80083FFF2CFBECFE9
:102350004132510509F43CC04232510509F0D3C065
:102360008430910508F0CFC0FC01EE0FFF1FE65945
:10237000FE4F0190F081E02D8A599E4FDC018C9137
:1023800090E01AC0332721303105D1F021153105F5
:1023900061F02230310509F0B6C0E4EAF6E0E491DC
:1023A0008E2F90E0E4EAF6E007C0E2EDF6E0E4917B
:1023B0008E2F90E0E2EDF6E0009709F4A4C0A5CFDF
:1023C000EEEBF6E0E4918E2F90E0EEEBF6E0F4CF4A
:1023D0008430910508F097C0880F991FFC01EE58D2
:1023E000FE4F0190F081E02D89E090E08ECF82E1F8
:1023F00090E0E2E9F6E089CF80918502882309F434
:1024000065CF853009F462CF8091E80083FD5ECF0F
:102410008091E80082FD8DCF8091E80080FF83CF1E
:102420009091F3008091F2002115310519F0883068
:10243000910550F041E0089709F040E08091E800F4
:102440008E778093E8006FCF44914093F1003196EE
:10245000215031090196E8CF803809F054C08091AD
:10246000E800877F8093E800809186028093F100E6
:102470009DCE811148C010918902123008F043C0EE
:102480008091E800877F8093E800109386020E9485
:10249000CD04112311F084E005C08091E30087FD95
:1024A000FACF81E08093850242E061EC81E00E94F6
:1024B000EC0442E261EC84E00E94EC0442E261EC54
:1024C00082E00E94EC0442E260EC83E00E94EC04B3
:1024D00042E261EC85E00E94EC048091850213C029
:1024E00080918902813079F481E0933009F080E0B5
:1024F000809384021092E9008091E800877F8093A6
:10250000E8000E94CD048091E80083FF0AC080911A
:10251000E800877F8093E8008091EB0080628093E1
:10252000EB00AA96E3E00C9440230E94BB0F2FEF30
:1025300084E39CE0215080409040E1F700C000001F
:1025400088E19CE00FB6F894A895809360000FBED8
:1025500090936000FFCF68EE7EEF90E080E00E94F5
:102560008C2360E082E090E00E946E2360E083E0D4
:1025700090E00E946E231092170260E084E090E0E9
:102580000E946E2364E082E290E00E946E2360E08D
:1025900085E090E00E946E2360E086E090E00E947B
:1025A0006E236FEF87E090E00E946E2340E050E0E2
:1025B000BA0188E090E00E94802360E08DE090E026
:1025C0000E946E2340E050E0BA0188E190E00E9452
:1025D000802360E087E190E00E946E2340E050E0BD
:1025E000BA018CE190E00E94802370E060E080E21C
:1025F00090E00E948C2340E050E0BA0188E190E036
:102600000E94802380E00E94790C0E94920C40E09E
:1026100050E0BA018FE090E00E94802340E050E05B
:10262000BA0183E190E00E9480230895A5E0B0E024
:10263000ECE1F3E10C9416238C01FC01838194817D
:10264000892B31F08081918189238F3F09F057C513
:102650002596E1E10C9432230E94DF0CF82E682FBE
:1026600089819A810E94710969817A818F2D0E94E6
:10267000D10C7C01F8018281882309F433C59701CC
:1026800022513F452031310508F0FFC48FEF93E020
:102690000E946023811128C0FEEEEF0E5FE7852EB9
:1026A00052E0952EE11032C01C821B8244244394D8
:1026B0004AE0342E74018FEFE81AF80AC4010E9430
:1026C000602389831A82882379F09FEF980F9330D3
:1026D00058F58A83498292E0890E911CC7010E94B5
:1026E00060238B83811121C08091F301877009F4ED
:1026F000AFCFF8018281882309F4AACF80915902D3
:1027000082FFA6CF82E00E942A0EA2CF811424E08D
:10271000920651F3C4010E946023811101C0EA9422
:102720003FEF831A930ABECF4701FE0131967F0126
:10273000F7012081222309F4BDCF213009F047C0E1
:1027400091818281913031F4F2E0EF0EF11C0E9410
:10275000400F07C0923049F422E0E20EF11C0E94C3
:10276000CC0E3FEFE31AF30AE3CF933031F432E0BB
:10277000E30EF11C0E94970EF4CF943021F08FEFFE
:10278000E81AF80AEECF92E0E90EF11C30E020E002
:10279000B7016F5F7F4FF70141818053990B8A30FA
:1027A000910550F021503109E0F28FE99FE0019747
:1027B000F1F700C00000F6CF329EF001339EF00D1D
:1027C00011249C012E0F3F1F842F7B01E1CFE22FAC
:1027D000F0E0EA5EFD4F5490822F869586958695AF
:1027E00090E0FC01EA5FFD4F64902770712C022E8F
:1027F00002C0759467940A94E2F7E1E06E227724B0
:10280000FC01EA50FE4FA490B12C022E02C0B594F8
:10281000A7940A94E2F7F1E0AF22BB24FC01EA514D
:10282000FE4FC490D12C02C0D594C7942A95E2F7EC
:1028300021E0C222DD246114710419F081EE0E94AE
:10284000CC0EA114B10419F086EE0E94CC0E852D99
:102850000E94400FA114B10419F086EE0E94970E59
:102860006114710419F081EE0E94970EC114D10415
:1028700009F477CF8CE26BCF81E00E94750E0E9445
:10288000110E32CF81E00E941D0EF9CF82E0F5CF0C
:1028900095EFE9169CE5F90609F46CC008F466C0EA
:1028A00027E245EE66EEF6EFEF16FCE5FF0609F4CB
:1028B00015C4882309F434C41092920223E0E2166E
:1028C0002DE5F20608F05DC03AEFE3163CE5F306AD
:1028D00030F4C70182509C45449708F05EC00E94C6
:1028E000540D9093590280935802E1E1EE16ECE505
:1028F000FE0609F438C108F0A6C029E0E2162CE56E
:10290000F20609F41EC108F06FC085E0E8168CE5F8
:10291000F80609F40AC108F058C0E3E0EE16ECE549
:10292000FE0609F4F8C008F0FCC0809158028160EE
:1029300022E0E2162CE5F20609F4F0C0609158029C
:10294000F090590284E090E00E946E236F2D82E2A5
:1029500090E00E946E230E94BB0FC6CE27E245EE98
:1029600065EEBCC326E241EE60EEB8C327E245EE59
:1029700064EEB4C326E241EE62EEB0C328E241E069
:10298000EFCF81E6E8168DE5F80609F4A8CF95EAC1
:10299000E9169DE5F90609F4A2CF36E1E3163CE518
:1029A000F30609F0CDC3809115028A7A91E009F40B
:1029B00090E090939C0169E2811165E38CE791E0DE
:1029C0000E941C0B0E94620D8FCE80915802806283
:1029D00037E0E3163CE5F30609F4A0C008F4ADC007
:1029E0008091580280649AC0809158028B7F9DE04C
:1029F000E9169CE5F90609F491C0B0F480915802FB
:102A00008E7FFBE0EF16FCE5FF0609F487C080919E
:102A100058028C602CE0E2162CE5F20608F47EC029
:102A2000809158028D7F7AC0809158028F7E3FE05E
:102A3000E3163CE5F30609F471C008F488C0809100
:102A400058028F7D6BC09DEFE9169CE5F90609F4ED
:102A500086C078F5F5E1EF16FCE5FF0609F491C0B4
:102A6000A0F480915802837F33E1E3163CE5F3063E
:102A700009F454C008F47BC00E94BB0F9091580227
:102A8000892F97FB87F9805849C09BEFE9169CE591
:102A9000F90609F44EC008F05EC0809159028160C9
:102AA000FAEFEF16FCE5FF0609F048CF80935902D4
:102AB00045CF21E0E2162DE5F20609F46EC0B8F428
:102AC0008FEFE8168CE5F80609F457C0809159029B
:102AD0008360E1149DE5F90648F380915902982F2F
:102AE000909591708E7F892B90FB81F9DFCFE1E685
:102AF000EE16EDE5FE0609F456C0F5EAEF16FDE523
:102B0000FF0609F457C022E0E2162DE5F20609F0AF
:102B100015CF60E043C080915802826080935802D4
:102B20000DCF809158028460F9CF8091580288605F
:102B3000F5CF809159028260B9CF809158028061AF
:102B4000EDCF0E94BB0F809158028068E7CF809143
:102B50005802877FE3CF809159028E7FA7CF809163
:102B600059028D7FA3CF809158028F7BD7CF0E94CF
:102B7000BB0F809158028F77D1CF809159028C7F03
:102B800095CF8091580282FB992790F921E09227F6
:102B900090FB82F990FB83F9C1CF61E08EE090E079
:102BA0000E946E23CBCE90915802892F8F7E94FF86
:102BB0008061B4CF90915802892F8E7F90FF816001
:102BC000ADCF90915202892F8E7F90FF81608093CC
:102BD000520280FF05C088EA92E00E94B10384CDD2
:102BE00086E992E0FACF0E94AB120E949512809182
:102BF000590282FB882780F991E089270E94460EBE
:102C0000F8018281E080F180882309F445C0C70182
:102C10000E94DF0CD82E682FC7010E947109B701EE
:102C20008D2D0E94D10C0E949E077C01882EF801F8
:102C3000D280B580B2943FE0B3228091F3018770D7
:102C4000C1F0AD2CDD20B1F08F2D807F803421F0DC
:102C500080E28E0D883068F08091590282FF09C0B1
:102C600082E00E942A0E8091F3018770AA24A39427
:102C70008111A12C9F2C92942FE09222FBE0F91558
:102C800008F479C0E92DF0E0E554FC4D0C940823DC
:102C900081E0B4CF80E0B2CFC7010E943D09D82EB9
:102CA000BECF2F2D2F70C22E8F2D807F19F0C29492
:102CB00090EFC922DD20B9F0CC2069F080E28E0DC2
:102CC000883010F0811009C080911502C82AC09286
:102CD00015020E94620D8E2D4CC080911402C82AEC
:102CE000C0921402F6CF8E2D0E94970ECC2009F4CC
:102CF00042C080E28E0D883010F0811004C08C2D0F
:102D00000E942C0906C0C09480911402C822C0926F
:102D100014020E94620D2FC03F2D3F70C32E8F2DD5
:102D2000807F803219F0C29480EFC822882089F019
:102D300081E0881609F46AC0DD2009F474C0BB2064
:102D400009F46AC0F801858180FFC5CF8F70858343
:102D500063C02091590222FD37C0DD2079F1CC20DB
:102D600039F080911502C82AC09215020E94620DA6
:102D700080E00E94CC0E292D2850330B24303105E1
:102D800020F40E9422060E94A809AA2009F460CC1F
:102D90008091F30180FD5CCCF801128285958595C8
:102DA00085950E94750EC8010E9416138091F3014B
:102DB0008595859585950E941D0E4ACC80E00E94E0
:102DC000970ECC20C1F29BCFDD2099F09091160296
:102DD0008C2D892BB11003C00E948D0ECCCFE1E069
:102DE000BE12FACF22FFC7CF981729F2809316029E
:102DF000C2CFB11006C00E9426098C2D0E94860EFB
:102E0000BACFF1E0BF1609F4B6CFF5CFDD2031F02F
:102E100022E02B1508F4AFCF8C2DDECF31E03B152F
:102E200008F4A9CFEACFBB2041F3F9E38F1209C020
:102E30002FEF37EE83E0215030408040E1F700C0B3
:102E400000008E2D0E94970E96CF8F2D8695869529
:102E5000837061F0813009F08ECFC7019370D1107B
:102E600002C090E080E00E94F60585CFC701937014
:102E7000D11002C090E080E00E940C067CCF8E2D25
:102E8000DD2029F00E94EA060E94620B74CF0E94A6
:102E90002F06FACF8F2D837091F5D1106CCF4E2D68
:102EA000429546954770440F440F8E2D8F70042E27
:102EB00001C0880F0A94EAF72E2D2071E4FE07C0A6
:102EC0002FE030E001C0220F4A95EAF720953F2D10
:102ED000369536953370323069F050F440911702D0
:102EE000313029F0822B84230E94810E44CF842B21
:102EF000822BFACF282B809117028227F5CF869557
:102F0000DD2011F08F2D8170882309F434CF4E2DF0
:102F1000429546954770440F440F8E2D8F70042EB6
:102F200001C0880F0A94EAF72E2D2071E4FE07C035
:102F30002FE030E001C0220F4A95EAF720953F2D9F
:102F4000369536953370323069F050F440918F02E7
:102F5000313029F0822B84230E940C0E0CCF842B5D
:102F6000822BFACF282B80918F028227F5CF9F2DBD
:102F70009F70F92EDD2029F0892F0E94750E8E2D6D
:102F80002BCF8E2D0E94860E8F2D0E941D0EF3CE0C
:102F90008E2DE2EF8E16B1F1E81570F0F0EF8F167E
:102FA000D1F021EF821691F0DD2009F45EC0B1105E
:102FB00092CE8F2D8F712AC033EF831651F194EF8B
:102FC0008912F2CF8091590282FD2FC08F2D8F710F
:102FD000DD20D9F21BC0DD2081F0E1E0EB1508F423
:102FE000CACE2F2D2F7181E090E001C0880F2A9565
:102FF000EAF790918F028927AFCFF2E0FB1508F432
:10300000BACEEFCF8F2D8F71D110BFCF0E94750E2A
:10301000B2CE80E0DD2009F49FCF9F2D9F7181E02B
:1030200001C0880F9A95EAF797CFDD2099F02F2DF0
:103030002F71F22E822F0E94750E8091590282FF0D
:1030400007C038E0F39EC001112483608093F30130
:103050008F2DDCCF81E00E942A0E81E08B1508F0D5
:103060008ACE82E00E942A0E86CEBB2059F0893398
:1030700009F0E7CE9FEFE7EEF3E09150E040F0403B
:10308000E1F7DDCE8F2D8F7180CFF0E1EF16FFE5F8
:10309000FF0609F4F1CB21E1E2162FE5F20609F46F
:1030A000F5CB93EFE9169CE5F90609F45BCC08F043
:1030B000EFCBF8EDEF16FCE5FF0609F44FCC29ED58
:1030C000E2162CE5F20609F459CC37EDE3163CE59F
:1030D000F30609F0EECB26E241EE61EEC8010E9454
:1030E0005E0F02CB30E1E3163FE5F30609F4CACBED
:1030F00091E1E9169FE5F906A1F682E0C4CB85E0EF
:10310000DE01119601900D928A95E1F7F801228176
:1031100089819A812111A0CA0E943D09F82EA4CA72
:10312000F6E1EF16FCE5FF0609F06ACD80919C01FF
:1031300069E2811165E38CE791E00E94E10A42CCEB
:103140002AE5E2162DE5F20609F4A2CDF0F481E0BD
:10315000E8168CE5F80609F434CD9EEDE9169CE5F9
:10316000F90609F440CDE114ECE5FE0609F048CD7E
:103170000E94BB0F8FEF94E3ECE081509040E04061
:10318000E1F700C000000E94BD0AFCE5EF16FDE576
:10319000FF0609F42CCD08F47DCD37EAE3163DE5B2
:1031A000F30609F422CD2CCD1F93CF93DF938091AA
:1031B000C001807F09F049C08091BD01882309F4D6
:1031C00044C08091F201D091C1016091BB01709126
:1031D000BC01A091BE01B091BF01C62FC72316E06C
:1031E000D81799F190E0109711F0CF3F19F401969C
:1031F0008770F6CF189F9001199F300D1124F901A7
:10320000EE53FE4F41814713F2CF40814613EFCF7B
:1032100042814111ECCF438154814A1B5B0B483CF6
:10322000510528F78091C0018F7080618093C001A3
:10323000F901E953FE4F80818F70806180838BEBB1
:1032400091E00E9416130E943309DF91CF911F91E4
:103250000895A1E1B0E0EFE2F9E10C941D238C01A7
:1032600085E0F801DE011D9601900D928A95E1F747
:10327000F801E2808BEBA82E81E0B82E6091BE01B0
:103280007091BF016115710509F426C19091BB01D0
:103290004091BC01892F84238F3F09F41DC12081F7
:1032A0003181C380D480F090BD01F601E61BF70B9D
:1032B000FF2009F4DCC08091C001582F507FE83C0A
:1032C000F10508F09FC051116BC0FE2C431314C0D0
:1032D000921312C0E11010C08F7080618093C00102
:1032E000C5010E9416138091C001F80185838F2DBE
:1032F0006196EAE00C943923C114D10429F0822F9D
:1033000083238F3F09F003C180E0F82FF170DF2E97
:1033100080FF3CC08091F2014091C10156E08413CE
:1033200015C02D873E878D859E850E940E0D292F05
:1033300022952F702230F0F0243018F59F70F1F0B4
:10334000F8019581907FD1F4D12C1EC090E0589F58
:10335000F001599FF00D1124EE53FE4F6181361399
:1033600006C06081261303C06281E6120FC0019679
:103370008770D5CF9F7011F0882331F3805E88303D
:1033800018F3C8010E941613FD2CB1CFEE2009F4EA
:10339000AECF8091C00181608093C001F12CA7CF96
:1033A000431306C0921304C0F801EE2009F479C05B
:1033B000C8010E941B0D882309F1EE20F9F08091CD
:1033C000C001803270F02091BB013091BC01388780
:1033D0002F831986DB86CA868C87CE0107960E94CA
:1033E000161386E0F801ABEBB1E001900D928A95DF
:1033F000E1F70E94D418FF24F39479CFC8010E940A
:103400001613F9CF51110AC08BEB91E00E941613ED
:1034100086E0F50111928A95E9F7C0CF43130FC0FA
:1034200092130DC0E1100BC0F8018583C8010E9402
:10343000161386E0F50111928A95E9F758CFC80175
:103440000E941B0D8823D1F2EE20C1F28091C001B1
:10345000803238F22091BB013091BC013A8329833C
:103460001B82DD82CC828E83CE010196B8CFE83CF0
:10347000F105F8F6FE2CEE2009F243131FC092135B
:103480001DC08091C00180FD10C0982F907F69F011
:10349000F8018583903F31F0982F907F905F8F7077
:1034A000892B8583C8010E94161386E0F801ABEBD7
:1034B000B1E001900D928A95E1F719CFC8010E9401
:1034C0001B0D81118ECF8091C00181608093C0015E
:1034D000C8010E9416130BCFEE2009F48FCFC8014C
:1034E0000E941B0DF82E882309F488CF86E0F8018E
:1034F000ABEBB1E001900D928A95E1F78091BB01B1
:103500009091BC010E940E0D0E94D418F0CE81E073
:103510008E25FBCEA7E1B0E0E0E9FAE10C9424238C
:103520004B8B5C8B6D8B7E8B8F8B61111092140299
:103530001A8A198A85E0FE017396DE011D960190B4
:103540000D928A95E1F786E0FE013D96DE01179621
:1035500001900D928A95E1F7CE0107960E942919F4
:10356000882359F016E08091F2019091C1018913EE
:1035700043C06796E3E00C94402386E0FE01379653
:10358000DE01119601900D928A95E1F78A859B855F
:10359000892B41F38F81988589238F3F19F32091DF
:1035A000C10130E0C9010196877099274091F2016D
:1035B0004817190671F40E94BB0F1092C1011092B6
:1035C000F20186E0EBEBF1E0DF011D928A95E9F76D
:1035D000C9CF96E0929FD001939FB00D1124AE53B6
:1035E000BE4FFE01319601900D929A95E1F78093BE
:1035F000C1010E943309B6CF819FC00111248E53AF
:103600009E4F0E942919882309F4B3CF8091F201BB
:1036100090E00196877099278093F201A4CFAFE0E4
:10362000B0E0E5E1FBE10C9419238E010F5F1F4F21
:103630008AE0F80111928A95E9F79EE3E92E91E07C
:10364000F92E680166246394712C32E5832E31E0F3
:10365000932EF70181917F018F3F09F445C0F894C3
:10366000E82FE295EF70F0E021A18F70A30102C076
:10367000440F551F8A95E2F7CA01922F982B91A308
:1036800092A18095892382A3789400C0E3E4F1E0BD
:1036900021E030E0B12CA12C41914F3F09F480C0D2
:1036A000A42FA295AF70B0E090968C9190E04F70EF
:1036B00002C0959587954A95E2F780FD71C0C901D2
:1036C000A82AB92A220F331F8E169F0629F7F70161
:1036D000319780818F3F11F00E94440750EA5A953C
:1036E000F1F7F601B182A082F2E0CF0ED11C43E4E3
:1036F000E41641E0F40609F0ACCF4AE050E0B8012E
:103700008BE192E00E94A223FF24F394009709F436
:10371000F12C892B09F447C08AE0F801ABE1B2E053
:1037200001900D928A95E1F781E080931A020E9440
:10373000EA059093190280931802809118029091E3
:1037400019020E94DB05059790F180911B02909170
:103750001C02909336028093350280911D02909155
:103760001E02909338028093370280911F0290913D
:10377000200290933A028093390280912102909125
:10378000220290933C0280933B028091230290910D
:10379000240290933E0280933D0210921A0207C0C9
:1037A00090E080E08DCF80911A028111C6CF809188
:1037B0002F028823A9F08695C1F085E08B8784E0ED
:1037C0008C871D860E94EA058160782F9F878E87EF
:1037D00010922F024B855C856D858F850E948A1A19
:1037E0008F2D2F96EEE00C94352383E0E7CF1F92C8
:1037F0000F920FB60F9211242F933F934F935F9325
:103800006F937F938F939F93AF93BF93CF93DF93E8
:10381000EF93FF93D091E900DF708091EC00C82F07
:10382000C17080FDC0E81092E9008091F000877FB0
:103830008093F00078940E94D10F1092E90080915B
:10384000F00088608093F000CD2BCF70C093E9002A
:10385000FF91EF91DF91CF91BF91AF919F918F91A8
:103860007F916F915F914F913F912F910F900FBE7C
:103870000F901F9018951F920F920FB60F92112460
:103880002F933F934F935F936F937F938F939F9368
:10389000AF93BF93EF93FF938091E10082FF15C038
:1038A0008091E20082FF11C08091E1008B7F8093C4
:1038B000E10020915F022F5F822F62E30E94E822E5
:1038C000992309F4C0C020935F028091DA0080FF41
:1038D00028C08091D80080FF24C08091DA008E7FBC
:1038E0008093DA008091D90080FFE3C080E189BD38
:1038F00082E189BD09B400FEFDCF81E0809385029D
:1039000083E096E00E94B10380916002811109C0BA
:103910000E9453040E941E058091E20084608093FF
:10392000E2008091E10080FF1BC08091E20080FFF7
:1039300017C08091E2008E7F8093E2008091E200C8
:1039400080618093E2008091D80080628093D800EB
:1039500019BC85E0809385028BE096E00E94B1035C
:103960008091E10084FF2FC08091E20084FF2BC092
:1039700080E189BD82E189BD89B5982F917080FF72
:10398000FBCF8091D8008F7D8093D8008091E1009B
:103990008F7E8093E1008091E2008F7E8093E20031
:1039A0008091E20081608093E2008091860288230A
:1039B00009F489C084E0809385028FE096E00E943C
:1039C000B103809185028091E10083FF2BC080913B
:1039D000E20083FF27C08091E100877F8093E100B0
:1039E00082E080938502109286028091E1008E7FB2
:1039F0008093E1008091E2008E7F8093E2008091CD
:103A0000E20080618093E20042E060E080E00E949A
:103A1000EC048091F00088608093F00083E196E0F0
:103A20000E94B103FF91EF91BF91AF919F918F9150
:103A30007F916F915F914F913F912F910F900FBEAA
:103A40000F901F90189510925F0280915E0288235C
:103A500009F43BCF809185028430C1F49091E90054
:103A60009F702091EC00822F817020FD80E8892BCF
:103A700095E09093E9009091EB0090FF04C0909145
:103A8000EE0097FD08C08F708093E90010925E02EF
:103A90001CCF1092F1009091E80095FDFACF909123
:103AA000E80090FFF0CF9091E8009E779093E800B7
:103AB000EACF19BC1092850287E096E00E94B1031C
:103AC000109260022ECF8091E30087FD93E09093E7
:103AD000850273CF78941F921FB61F9211248F9383
:103AE0009F93AF93BF938091540290915502A09100
:103AF0005602B09157020196A11DB11D8093540248
:103B000090935502A0935602B0935702BF91AF9184
:103B10009F918F911F901FBE1F9018951F921FB6E7
:103B20001F9211248F939F93AF93BF938091530261
:103B3000811113C08091540290915502A0915602B8
:103B4000B09157024196A11DB11D809354029093EC
:103B50005502A0935602B0935702BF91AF919F9127
:103B60008F911F901FBE1F901895CDB7DEB7AB97F2
:103B70000FB6F894DEBF0FBECDBF85B7806885BF96
:103B800085B7806885BF84B7877F84BF0FB6F894F8
:103B9000A895809160008861809360001092600019
:103BA0000FBE80E890E00FB6F89480936100909388
:103BB00061000FBE86EC99E090937B0180937A01BF
:103BC0000E9453040E941E058091E200846080934D
:103BD000E2007894809185028823A1F01091E90099
:103BE0001F709091EC00892F817090FD80E8182B58
:103BF0001092E9008091E80083FD0E94D10F1F70B0
:103C00001093E90082E084BD93E095BD9AEF97BDE3
:103C100080936E000E943B0D811102C00E94920CA5
:103C20000EE311E0B3E4EB2EB1E0FB2ED8018D9151
:103C30008D018F3F11F00E944407E016F106B1F7A5
:103C400003E411E0F80181918F018F3F11F00E9490
:103C50004407F1E002351F07A9F78AE0E5E3F2E047
:103C6000DF01282F1D922A95E9F7EBE1F2E0DF0151
:103C70001D928A95E9F790E080E00E946823883ED3
:103C80009E4F21F40E943B0D811102C00E94AB1295
:103C900082E090E00E946023809352020E94540DC3
:103CA00090935902809358020E940F1BEFE3FCE9A6
:103CB0003197F1F700C000000E940F1B8091350280
:103CC00080FF08C06FEF7FEF90E080E00E948C23C0
:103CD0000E94BD0A83E090E00E9460230E94810E52
:103CE000879A8F9A81E0809332022198299A2098AE
:103CF000289A8FE891E00197F1F700C00000209129
:103D0000320243E352E0FA018E2F841B821708F43B
:103D100057C080E091E090934F0280934E028091D3
:103D20008502853089F488EE92E00E94B10300E1BB
:103D300012E180918502853009F44DC00E94BB0FCD
:103D40000E9422060E94A8090E940F1B882359F096
:103D50008FB7F894409154025091550260915602E9
:103D6000709157028FBFF5E26F2EF2E07F2EA5E330
:103D70004A2EA2E05A2E10E000E00BA7D201ED90EF
:103D8000FD902D01F301A190B1903F01AE14BF044D
:103D900009F05FC00F5F1F4F0530110571F78FEFFE
:103DA0008EA38FA318A60E94EA058160782F9AA798
:103DB00089A74EA15FA168A58AA50E948A1A7AC028
:103DC00083B186958170189904C090E0892B819306
:103DD0009BCF92E0FBCF80918502843039F180E067
:103DE0000E94A80910925302A8E1B0E0E0E40FB6E7
:103DF000F894A895A09360000FBEE093600083B78D
:103E0000817F846083BF83B7816083BF7894889506
:103E100083B78E7F83BF0FB6F894A895809160001A
:103E2000886180936000109260000FBE80918402D0
:103E3000882309F47ECF0E940F1BE5E3F2E0819115
:103E40009191892B09F09BC322E0EF33F207B9F778
:103E500070CF8091520281FD70C1AE24BF2480E0FA
:103E6000CC24C394D12C95012C213D21232B09F482
:103E70009FC189A32BA52AA3EC20FD2081E0EF2878
:103E800009F480E08BA30E94EA058160782F9DA34E
:103E90008CA349A15AA16BA18DA10E948A1A000F7F
:103EA000111FF801EB5DFD4F80819181C826D92655
:103EB000D182C082B12CA12C42E0842E52E0C52ECA
:103EC000D12C9924939480913202B81608F477C1CA
:103ED000AA2059F08FB7F89440915402509155029E
:103EE00060915602709157028FBF86E0E6E4F2E0DF
:103EF000DE01119601900D928A95E1F71092480229
:103F00001092490210924A0210924B028B819C81BE
:103F1000892B09F44AC080914402909145020E9485
:103F2000DB059C0190914102992309F44CC3253192
:103F30003105D8F19F3F19F09F5F909341021B819B
:103F4000112359F00E94CA069FEF11160CF491E05C
:103F5000899F802D1124809348021C81112359F0E0
:103F60000E94CA069FEF11160CF491E0899F802DE4
:103F7000112480934902309148023323B1F02091FB
:103F80004902222391F045EB3403C0011124992307
:103F900009F490C19093480245EB24039001112449
:103FA000332309F48BC1309349028D819E81892B83
:103FB00009F44AC080914202909143020E94DB05BD
:103FC0009C0190913F02992309F4F8C221353105F3
:103FD000D8F19F3F19F09F5F90933F021D811123FD
:103FE00059F00E94A8069FEF11160CF491E0899FEA
:103FF000802D112480934A021E81112359F00E94C2
:10400000A8069FEF11160CF491E0899F802D1124D2
:1040100080934B0230914A023323B1F020914B023E
:10402000222391F045EB3403C0011124992309F4B4
:1040300049C190934A0245EB240390011124332394
:1040400009F444C130934B0246E050E0BE016F5F7B
:104050007F4F86E492E00E94A223892B61F4809135
:10406000480290914902892B90914A02892B9091A4
:104070004B02892B11F00E94620B86E0FE01319603
:10408000A6E4B2E001900D928A95E1F70E94220623
:10409000182F80913402181739F11093340280914F
:1040A000520282FF1EC080FF1CC08AE193E00E9482
:1040B000B1038091520280FF14C01F921F9385E1CB
:1040C00093E09F938F930E944A04809152020F9035
:1040D0000F900F900F9080FF04C083E193E00E9447
:1040E000B103812F0E94A80980918502843009F0D4
:1040F00016CE83E08093E9008091E80082FF0FCE26
:104100008091E80090E085FF06C00E947204882339
:1041100009F4E0C091E08091E8008B778093E8009B
:10412000992309F4FCCDE981E150E33108F071C134
:10413000F0E0E953FC4D0C9408238CEF92E00E94D0
:10414000B10375E3872E72E0972ED12CC12CDF923C
:10415000CF9287EF92E09F938F930E944A0484EF5F
:1041600092E00E94B103F40180812180F2E08F0E81
:10417000911C0E94AE09382E822D0E94AE093F92FA
:104180008F938EEE92E09F938F930E944A048CEE61
:1041900092E00E94B103BFEFCB1ADB0A0FB6F8948E
:1041A000DEBF0FBECDBFF5E0CF16D10481F655CEF0
:1041B0008F5FCC0CDD1C8F3009F055CEEBCD0B2D75
:1041C00010E0E3B1E695E170189972C080E08E2BA3
:1041D000D801AD5CBD4FEC919E2F9370891709F407
:1041E00065C0EE0FEE0FE82BEC93EF70F0E0EA5AAB
:1041F000FE4FC8018F5C9D4F7C018081D7019C914F
:10420000890F8C9320E082300CF1F801E05DFD4FC6
:1042100080818F5F8083F801EE0FFF1FEE5AFE4F03
:10422000808191819A8389839B820E94EA058160C3
:10423000782F9D838C83F801E15DFD4F9082498149
:104240005A816B818D810E948A1A21E0F701808159
:104250008F3F0CF5F801E05DFD4F80818150808338
:10426000F801EE0FFF1FEC5AFE4F808191819A8377
:1042700089839B820E94EA058160782F9D838C83CD
:10428000F801E15DFD4F808249815A816B818D810A
:104290000E948A1A21E0D7018C91082E000C990BFC
:1042A000B6010E94F422F7018083A22AB3940BCEB8
:1042B00082E08DCF81E0809348026ECE81E08093D2
:1042C000490273CE81E080934A02B5CE81E08093AB
:1042D0004B02BACE80E2E82EF12C8E010F5F1F4F09
:1042E0008091E80085FD0AC08091E8008B7780937B
:1042F000E8000E947204882399F30CCF8091F100AA
:10430000D8018D938D01B1E0EB1AF10849F702CF86
:104310001A8289E08B831AC08A81823009F445C1F0
:104320008330D9F1813009F074C02FB7F8946091CF
:1043300054027091550280915602909157022FBFFE
:104340000E940E236B837C838D839E8380918502E4
:10435000843009F0E4CC1091E9001F709091EC00DA
:10436000892F817090FD80E8182B82E08093E9000E
:104370008091E80080FF0DC050E040E060E270E016
:10438000CE0101960E94A3048091E8008E7780936D
:10439000E8001F701093E900C2CC80913502909123
:1043A00036029827892798279C838B838091370230
:1043B000909138029827892798279E838D83809132
:1043C000390290913A0298278927982798878F83F6
:1043D00080913B0290913C029827892798279A87E1
:1043E000898780913D0290913E02982789279827DE
:1043F0009C878B87ABCF8A81823059F46B817C811B
:104400008D819E810E940E2386E290E00E946E23A1
:104410009DCF8FEF89839ACF4C816B818A810E94D7
:10442000A20C9827892798279E838D838FCF2D8173
:104430003E813227232732274C816B818A810E945B
:104440001B0C84CF0E94410C81CF80E18A837ECFF8
:1044500081E08A8381E85ECF0A811B8110270127D2
:104460001027FE0131967F01CC80CF018C0D911D6C
:104470006C01C80181589D4FEC14FD0409F466CF0E
:104480000138A1E01A0750F40E946023F7018483E9
:104490000F5F1F4FBFEFEB1AFB0AEBCFD70114964C
:1044A0001C92F6CF0A811B81102701271027FE01DD
:1044B00031966F01EC80E00EF12EF11CC80181589D
:1044C0009D4F0E151F0509F441CF0138F1E01F077C
:1044D00028F4D60114966C910E946E23BFEFCB1A7C
:1044E000DB0A0F5F1F4FEACF0E940B0C2FCF84E037
:1044F000ADCF0A811B81102701271027FE013196BD
:104500007F01CC80CF018C0D911D6C01C801879675
:10451000CE14DF0409F41ACF0835A2E01A0750F4CC
:104520000E946023F70184830F5F1F4FBFEFEB1AD8
:10453000FB0AECCFD70114961C92F6CF0A811B819F
:10454000102701271027FE0131966F01EC80E00E45
:10455000F12EF11CC8018796E016F10609F4F6CE9B
:104560000835F2E01F0728F4D60114966C910E94DA
:104570006E23BFEFCB1ADB0A0F5F1F4FEBCF09BDD6
:1045800019BD09B400FEFDCF8091D8008F7D8093C6
:10459000D8008091E00082608093E0008091E0008C
:1045A00081FDFCCF0E94BB0FC4CB86E290E00E944D
:1045B00060231B821C821D828E83C8CE2B30310566
:1045C00008F009CD41CD2B30310508F0B5CCEDCC4C
:1045D000991B79E004C0991F961708F0961B881F55
:1045E0007A95C9F78095089597FB072E16F40094E5
:1045F00007D077FD09D00E944C2307FC05D03EF47C
:10460000909581959F4F0895709561957F4F08957E
:10461000EE0FFF1F0590F491E02D0994692796276E
:10462000692778278727782708952F923F924F92FE
:104630005F926F927F928F929F92AF92BF92CF9232
:10464000DF92EF92FF920F931F93CF93DF93CDB73B
:10465000DEB7CA1BDB0B0FB6F894DEBF0FBECDBFB3
:1046600009942A88398848885F846E847D848C8484
:104670009B84AA84B984C884DF80EE80FD800C818D
:104680001B81AA81B981CE0FD11D0FB6F894DEBF70
:104690000FBECDBFED010895AA1BBB1B51E107C0A2
:1046A000AA1FBB1FA617B70710F0A61BB70B881FC2
:1046B000991F5A95A9F780959095BC01CD01089551
:1046C000F999FECF92BD81BDF89A992780B50895DA
:1046D000A8E1B0E042E050E00C949423262FF99931
:1046E000FECF92BD81BDF89A019700B4021639F051
:1046F0001FBA20BD0FB6F894FA9AF99A0FBE089522
:104700000396272F0E946F230E946E23252F0E945D
:104710006F23242F0C946F230196272F0E946F2361
:104720000C946E23DC01CB01FC01F999FECF06C08D
:10473000F2BDE1BDF89A319600B40D92415050405F
:10474000B8F70895FB01DC0104C08D910190801938
:1047500021F441505040C8F7881B990B0895F894F4
:10476000FFCFB210DA108312DA1083120D112E115E
:1047700083122C123912511651168C168C162517CD
:104780003F17BB16BB164A17B717C817C81788219B
:104790008C21FB210C221722222209220922092224
:1047A00009220922252228222C2252227422772231
:0447B00079229E22AA
:1047B400D8057D0A5C0A570A520AD705018182830B
:1047C400E200E900EA00B500B600B700CD008301BD
:1047D400CC008A01920194012102230224022502C1
:1047E400260227022A02B300B4006F007000F0C64C
:1047F40095F1F46793929190373332663635349756
:1048040096940304050400FF0100010000FFFF006B
:1048140000010001FF004022B622A6018401CE005F
:0A482400AC002906420662067B067E
:00000001FF
