:100000000C946F030C94B6030C94B6030C94B603D3
:100010000C94B6030C94B6030C94B6030C94B6037C
:100020000C94B6030C94B6030C94991C0C94551CB8
:100030000C94EC1D0C94B6030C94B6030C94B6030C
:100040000C94B6030C94B6030C94B6030C94B6034C
:100050000C94B6030C94C81D0C94B6030C94B60310
:100060000C94B6030C94B6030C94B6030C94B6032C
:100070000C94B6030C94B6030C94B6030C94B6031C
:100080000C94B6030C94B6030C94B6030C94B6030C
:100090000C94B6030C94B6030C94B6030C94B603FC
:1000A0000C94B6030C94B6030C94B6030631FF0906
:1000B00074A1010975150026FF00952075088102BD
:1000C0000976150026FF00952075089102C00501EC
:1000D0000902A10185020901A100050919012908E8
:1000E00015002501950875018102050109300931C6
:1000F0001581257F95027508810609381581257FB0
:10010000950175088106050C0A38021581257F9531
:100110000175088106C0C005010980A10185031988
:10012000012AB700150126B700950175108100C09E
:10013000050C0901A101850419012AA00215012657
:10014000A002950175108100C005010906A1018575
:1001500006050719E029E7150025019508750181B5
:10016000020507190029EF1500250195F075018199
:10017000020508190129059505750191029501757A
:10018000039101C00660FF0961A101096215002603
:10019000FF009520750881020963150026FF009570
:1001A0002075089102C005010906A101050719E0A3
:1001B00029E715002501950875018102950175084B
:1001C00081010507190029FF150026FF0095067516
:1001D0000881000508190129059505750191029509
:1001E0000175039101C00000000000000000000044
:1001F00000000000000000000000000000000000FF
:10020000000000000000000000007E0F00D4FFFF8F
:10021000FFC70000007800000000000000002A2B4B
:1002200028000000000000000000000000000000A6
:100230000029000000002C1E34202122243426270F
:10024000252E362D3738271E1F2021222324252630
:100250003333362E37381F0405060708090A0B0CFE
:100260000D0E0F101112131415161718191A1B1C46
:100270001D2F3130232D350405060708090A0B0C04
:100280000D0E0F101112131415161718191A1B1C26
:100290001D2F3130354C44454255473A206469732F
:1002A00061626C65642E0A0044454255473A2065F8
:1002B0006E61626C65642E0A004F6E6573686F74C0
:1002C0003A206163746976653A2025640A000A0061
:1002D0002530325820006B6579626F6172645F72FD
:1002E00065706F72743A20005B735D000A00253000
:1002F000313662003A200025303258000A722F63EE
:100300002030313233343536373839414243444571
:10031000460A000A0025303258006B6579626F6129
:1003200072645F7365745F6C65643A2000290A002B
:100330002575002F002575005D280025640020002C
:10034000256400200025640020002564007C002531
:10035000303258006D6F7573656B6579205B627420
:100360006E7C782079207620685D287265702F6118
:10037000636C293A205B0029001E001F0020002129
:10038000002200230024002500260027002D002E37
:10039000002A00A8002B0014001A000800150017FE
:1003A000001C0018000C00120013002F0030003158
:1003B000004C00390004001600070009000A000B79
:1003C000000D000E000F003300340028002A004BFF
:1003D00000E100E1001D001B0006001900050011EE
:1003E000001000360037003800E50052004D00E0F4
:1003F00000E300E200A9002C00AA002C0000002C61
:10040000000000E6000151500051004F0035003A55
:10041000003B003C003D003E003F004000410042E8
:10042000004300440045000100AE0001000100014E
:1004300000010001000100010001000100010001B4
:1004400000010001000100010001000100010001A4
:100450000001000100010001000100010001000194
:100460000001000100010001000100010001000184
:100470000001000100010001000100010001000174
:10048000000100005C010001000100AB000100ACB4
:100490000001000000010000000100010001000156
:1004A0000001000100010001000100010001000144
:1004B0000001000100010001000100010001000134
:1004C0000001000100010001000100010001000124
:1004D0000001000100010001000100010001000114
:1004E0000001000100010001000100010001000104
:1004F00000010001000100010001000100010001F4
:1005000000010001000100010001000100010001E3
:1005100000010001000100010001000100010001D3
:1005200000010001000100010000000100000001C5
:1005300000010001000100010001000100010001B3
:1005400000010001000100010001000100010001A3
:100550000001000100010001000100010001000193
:100560000001000100010001000100010001000183
:100570000001000100010001000100010001000173
:100580000001000100010001000100010001000163
:100590000001000100010001000100010001000153
:1005A0000001000100010001000100010001000143
:1005B0000001000100010001000100010001000034
:1005C00000010000000100010001000100010061C4
:1005D00064645F6B65795F6269743A2063616E275A
:1005E00074206164643A20253032580A0064656CD6
:1005F0005F6B65795F6269743A2063616E2774206E
:1006000064656C3A20253032580A005B435D005B1C
:10061000445D005B535D005B575D005B525D00090C
:10062000027B00040100A0FA09040000010301019B
:100630000009211101000122400007058103080083
:100640000A09040100020300000009211101000150
:100650002222000705820320000107050303200072
:100660000109040200010300000009211101000139
:1006700022B6000705840320000A090403000203D0
:100680000000000921110100012222000705850355
:1006900020000107050503200001120100020000EF
:1006A00000086C80050001000102000118037A00B7
:1006B0006F006F006D00360035005F006C00690050
:1006C00074006500000012036D0065006C00650099
:1006D000740072006900780000000403090411240A
:1006E0001FBECFEFDAE0DEBFCDBF04B603FE27C0EA
:1006F00080916F0290917002A0917102B09172028C
:100700008730904BA740B04BD1F410926F021092FB
:100710007002109271021092720214BE84B7877F29
:1007200084BF0FB6F894A89580916000886180938B
:100730006000109260000FBEE0E0F8E3099511E060
:10074000A0E0B1E0E4EDF7E402C005900D92A63719
:10075000B107D9F722E0A6E7B1E001C01D92AF369C
:10076000B207E1F70E94131E0C94B1230C94000011
:10077000FF93EF93E0917601F0917701309709F0C4
:100780000995EF91FF910895FC018591803011F05A
:10079000EFDFFBCF0895FF27E0E230E247FF0CC018
:1007A000419597FF09C0EDE2609570958095909511
:1007B000611D711D811D911D27FF02C0219530E330
:1007C00050E2AA27660F771F881F991FAA1FA41738
:1007D00010F0A41B63955A95A9F7AA3008F0A95FF9
:1007E000A05DAF93F395611571058105910541F702
:1007F000ED3211F4EF93F395F21718F43F93F3955C
:10080000FBCF8F91B5DFFA95E1F70895E991F99162
:100810008591803021F0853219F0AADFF9CF089553
:1008200020E0E89455915532C1F3503311F46894A7
:1008300055915A3348F4505390F3220F022E220F51
:10084000220F200D250FF4CF0EF421958991999157
:10085000533619F3533729F1533559F1BC01882721
:100860009927E8945C3621F489919991689455917F
:10087000543639F446EF7EF077FF0DC08FEF9FEFCF
:100880000AC055374AE039F0583540E121F0523678
:1008900042E009F00895FF93EF937DDFEF91FF9120
:1008A000B7CFFF93EF93FC0181918030B9F360DF04
:1008B000FBCFFF93EF9368DFF1CFDF93CF93CDB7FB
:1008C000DEB72596A3DFCF91DF910895E8EDF0E044
:1008D00080818E7F80831092E2001092DA00109265
:1008E000E100A0EEB0E08C9181608C9380818F77E5
:1008F000808319BCA7EDB0E08C918E7F8C938081B2
:100900008F7E808310923C0208952091E400309104
:10091000E50095E6A9012091EC00822F817020FF6F
:1009200006C08091E80080FF06C080E00895209115
:10093000E80022FD1AC080916102882389F0853089
:1009400089F08091EB0085FD0FC02091E40030918B
:10095000E50042175307F9F29150E1F684E008955B
:1009600082E0089583E0089581E00895EF92FF9278
:100970000F931F93CF937C018B010E948504C82F96
:10098000811117C08091E80085FD0BC08091E800BF
:100990008E778093E8000E948504882399F3C82FFE
:1009A00008C0F70181917F018093F1000150110986
:1009B00049F78C2FCF911F910F91FF90EF900895E1
:1009C0008091630287FF13C08091E80082FF06C018
:1009D0008091E8008B778093E80004C080916102E9
:1009E0008111F2CF0895809161028823D9F380911B
:1009F000E80080FFF8CF8091E8008E77ECCF982F49
:100A00009093E900242F762F50E0891731F07091F0
:100A1000EC002091ED005091F00021FD07C09F5F98
:100A2000973071F78093E90081E008953091EB00F1
:100A30003E7F3093EB003091ED003D7F3093ED0031
:100A40003091EB0031603093EB007093EC00209319
:100A5000ED005093F0002091EE0027FDE0CF80E004
:100A60000895CF92DF92EF92FF920F931F93CF934F
:100A7000DF93C8EDD0E088818F7E8883E7EDF0E0DA
:100A800080818160808384E082BF81E080933C022A
:100A900088818E7F888302EE10E0F8011082109228
:100AA000DA0081EEC82ED12CF601108288818F7772
:100AB000888388818068888388818F7D888319BC3A
:100AC00010926102109262021092600210925F0214
:100AD00090EEE92EF12CF70180818B7F8083888155
:100AE0008160888342E060E080E00E94FF04F601BC
:100AF00080818E7F8083F801808181608083808106
:100B000088608083F70180818E7F80838881806107
:100B10008883DF91CF911F910F91FF90EF90DF902D
:100B2000CF900895FC018091690290916A02861726
:100B30009707A0F06115710529F49091E8009E7760
:100B40009093E80090E06115710551F4911108C08F
:100B50008091E80082FF34C080E00895BC01F2CFAC
:100B6000809161028823C1F18530C1F18091E80054
:100B700083FD30C08091E80082FDEACF8091E800DB
:100B800080FFE1CF8091F3002091F200382F6115B2
:100B9000710519F02830310558F091E02830310501
:100BA00009F090E02091E8002E772093E800CBCF69
:100BB00081918093F100615071092F5F3F4FE7CF22
:100BC00080916102882341F0853041F08091E800F6
:100BD00083FFBECF81E0089582E0089583E0089509
:100BE000089580913E0208959C014FB7F89480913A
:100BF000300290913102A0913202B09133024FBF86
:100C0000821B930B08952FB7F89480913002909136
:100C10003102A0913202B09133022FBF089520918A
:100C20002C0230912D022817390771F090932D0274
:100C300080932C02E0912A02F0912B02309721F050
:100C40000084F185E02D09940895209128023091C7
:100C500029022817390771F09093290280932802FE
:100C6000E0912A02F0912B02309721F00680F78163
:100C7000E02D09940895E0912A02F0912B0230971B
:100C800021F00190F081E02D099480E008954091D9
:100C90002402803F59F48091250287FF0DC01092F5
:100CA000250241110BC010921D0208C0813F81F442
:100CB0008091250218169CF3442381F0809126022E
:100CC00090912702892B09F05AC010921B020895B7
:100CD000823F49F447FFF0CF109224028091250211
:100CE0008111ECCFE0CF833F19F41416ACF3E4CFBD
:100CF00090912602893F29F41916F4F610922602E3
:100D0000DBCF8A3F19F497FFD7CFF8CF9091270216
:100D10008B3F29F497FFD0CF10922702CDCF8C3F85
:100D200019F41916CCF3C8CF9CE0980F953090F4C5
:100D3000845F990B21E030E0B90102C0660F771F94
:100D40008A95E2F7CB0180959091230289238093C5
:100D50002302B2CF8D3F31F480911C028E7F8093AD
:100D60001C02AACF8E3F21F480911C028D7FF7CF09
:100D70008F3F09F0A1CF80911C028B7FF0CF0895A7
:100D800080911C0280FD16C081FD16C082FD16C038
:100D900080911B028823A1F0883280F428E0829F92
:100DA000C001112468E270E00E942D23862F672B7A
:100DB00039F0089582E0089584E0089588E0089568
:100DC00081E0089580911C0280FD14C081FD14C053
:100DD00082FD16C080911D02882381F0843180F449
:100DE00022E3829FC001112464E170E00E942D2360
:100DF000862F08958CE0089589E1089585E008958F
:100E000082E30895803F31F40E94E2068195809349
:100E100025020895813F19F40E94E206F8CF823F2F
:100E200031F40E94E2068195809324020895833F65
:100E300019F40E94E206F8CF893F29F40E94C00607
:100E40008093260208958A3F21F40E94C00681956E
:100E5000F7CF8B3F31F40E94C00681958093270223
:100E600008958C3F19F40E94C006F8CF9CE0980FBB
:100E7000953070F4845F990B21E030E001C0220FBF
:100E80008A95EAF780912302822B809323020895AA
:100E90008D3F31F480911C02816080931C02089583
:100EA0008E3F21F480911C028260F7CF8F3FB9F70B
:100EB00080911C028460F1CFF894E82FE295EF70E6
:100EC000F0E031A1282F2F7081E090E001C0880F61
:100ED0002A95EAF7982F9095932391A392A1892BB5
:100EE00082A3789408959091340292FF06C0282F2F
:100EF00028712830F9F4877F846093FF06C0282F7B
:100F000028712831F1F4877E84612091350220FF19
:100F100006C0382F38713830D9F4877F816021FFBF
:100F200006C0282F28712831D1F4877E816194FD75
:100F3000877E0895282F24712430F9F68B7F8860EE
:100F4000DCCF282F2471243101F78B7E8861DDCF1F
:100F5000382F3171313019F78E7F8860E0CF282F1C
:100F60002171213121F78E7E8861E1CFCF93DF930C
:100F7000EC0182389105A9F1D8F58133910509F486
:100F800096C048F58932910509F48AC08A9709F418
:100F900095C0C11521E5D20708F0BCC0C11530E5E8
:100FA000D30708F014C1C83ED10508F09CC0C13E6B
:100FB000D10560F5C83AD10508F087C0C53AD1051A
:100FC00008F0FDC0C130D10509F12097F9F0C43017
:100FD000D105E0F440C08533910509F45AC0C997A2
:100FE000C1F680913402837089F0C0EED0E00EC06B
:100FF000833E910599F170F4803E910501F1823EA6
:10100000910539F68091340282FD21C0CE01DF9135
:10101000CF910895863E910561F1873E910571F16A
:10102000843E910509F0B5CF8091350281FFEECF66
:1010300080913402C7EED0E084FD0DC0E7CF8091EF
:10104000340280FD12C19091350290FFDFCFC3EED4
:10105000D0E084FFDBCFD0E0C0E0D8CF8091340275
:1010600082FD06C19091350290FDBFCF84FFCECFA7
:10107000F2CF8091340283FDDDCFC8CF809134025E
:1010800083FDF9C09091350291FFF0CFC4EED0E01E
:10109000BDCF8091340285FFB9CFC9E2D0E0B6CF91
:1010A0008091340285FFB2CFC5E3D0E0AFCF80910D
:1010B000340286FFABCFCAE2D0E0A8CF80913402E1
:1010C00086FFA4CFC1E3D0E0A1CFCF3BD10518F676
:1010D000C85AD0E0CC0FDD1FC05FDE4F0990D88129
:1010E000C02DD46493CFC11540E2D40758F4C11584
:1010F00081E0D80708F08ACFC03FD10508F4ABCF14
:10110000D06584CFC11590E4D90708F4A4CFDF706F
:10111000D06A7CCFC11525E5D20700F5C11534E5AD
:10112000D30708F08AC0C11543E5D40708F071C0A1
:10113000C11582E5D80708F467C0CE0183709927EE
:1011400021E030E002C0220F331F8A95E2F7C695F6
:10115000C69580E2C89FE001112452C0C11599E5EF
:10116000D907A8F4C11528E5D20708F06BC0C1154E
:1011700036E5D30708F06FCF8C2F0E947307C82F76
:10118000D0E0DC2FCC27CC27DF71D0623FCFC11558
:101190004AE5D40708F45BC0CE0190568115904211
:1011A00008F059CF8D2F8F710E94730790E0982F10
:1011B000882788279F719C012C2BE901E6CFC55A0F
:1011C000D0E0C35FDE4FC881D0E0D0641FCFCE0136
:1011D000E4E096958795EA95E1F783702C2F2695A4
:1011E0002695237040E2249F90011124382B8C2FE8
:1011F0008370C1E0D0E002C0CC0FDD1F8A95E2F71A
:10120000C22BD32BDC6802CFDC2FCC27C16FD06A76
:10121000FDCECE018370992721E030E002C0220F7D
:10122000331F8A95E2F7C695C69590E2C99FE00103
:101230001124C22BD32BDA68E9CEDC2FCC27C46F64
:10124000D06AE4CEDC2FCC27C06FD06ADFCE8C2FE3
:101250008F700E94730734E0D695C7953A95E1F7F1
:10126000CF709C2FEC01D069D1CEC9E3D0E0CECEB7
:10127000C2EED0E0CBCEC6EED0E0C8CE8091F30176
:1012800081111092F301089580959091F2019823B5
:101290009093F20108958091EE019091BD01981311
:1012A00001C008958F5F8770FACF2FE0929F800D65
:1012B0001124982F977086958695869523E0829FB6
:1012C000F0011124E756FE4F50E040E080E021910C
:1012D00030E0092E02C0369527950A94E2F7217076
:1012E0003327042E01C0220F0A94EAF7822B4F5FA6
:1012F0005F4F4330510559F708952FE0929F800DBD
:101300001124982F977041E001C0440F9A95EAF795
:1013100086958695869593E0899FF0011124E7567E
:10132000FE4F90E080E070E05191DF0111979B014A
:10133000082E02C0369527950A94E2F72170219570
:101340002527242325272C9301968330910561F7C7
:10135000089581FD02C08F9A08958F98089582950F
:1013600090E09C01220F331F220F331F2C7C959598
:101370008795959587958373282B30E0C901880F51
:10138000991F8A7A359527952575822B08959FB7E1
:10139000F89410923A029FBF90916102943009F044
:1013A00048C02091E9002F703091EC00932F91708C
:1013B00030FD90E8922B25E02093E9002091EB008E
:1013C00020FF34C02091EE0027FF30C02091390269
:1013D000222321F02091E80025FF28C01092390235
:1013E00026E03091E80035FF14C08093F100809131
:1013F000E80085FD27C08091E80080FFFCCF809148
:10140000E8008E778093E8009F709093E90080E079
:10141000089530916102343049F43091EB0035FD8C
:1014200005C0215041F481E0809339029F70909370
:10143000E9008FEF0895EFE9FFE03197F1F700C081
:101440000000CFCF8FB7F89421E020933A028FBFEE
:10145000DBCF80933602709338026093370280911D
:1014600061028430F9F48093E9008FEF9091E800F5
:10147000815095FD06C095ED9A95F1F70000811118
:10148000F5CF8091E80085FF0DC050E040E063E0BB
:1014900070E086E392E00E94B6048091E8008E77C7
:1014A0008093E8000895BC0184E00C94290ABC01F3
:1014B00083E00C94290A9C0184E08093E9009FEF6B
:1014C0008091E800915085FD06C085ED8A95F1F781
:1014D00000009111F5CF8091E80085FF0CC050E02D
:1014E00040E066E070E0C9010E94B6048091E80027
:1014F0008E778093E8000895CF93DF93EC0180917D
:101500000C018823B1F18091340287FF32C060E280
:1015100084E08093E9008FEF9091E800815095FD81
:1015200006C095ED9A95F1F700008111F5CF8091F5
:10153000E80085FF1BC080910C0170E050E040E0A6
:10154000811104C050E040E068E070E0CE010E94EC
:10155000B6048091E8008E778093E80080E2FE0177
:10156000AFE3B2E001900D928A95E1F7DF91CF9160
:10157000089568E081E0CDCF81E08093E00080E2D3
:101580008093D8001092C9008FE19EE40197F1F793
:1015900000C0000087E090EBDC0180936F02909325
:1015A0007002A0937102B093720288E19CE00FB6C2
:1015B000F894A895809360000FBE90936000FFCFD1
:1015C00020910C01222351F12091340227FF26C0E3
:1015D000E62FE695E695E695EE3178F4E80FF92FDB
:1015E000F11D677021E030E001C0220F6A95EAF733
:1015F0002095828128232283089580912E0280FFE6
:1016000019C01F926F938DEE95E09F938F930E9468
:101610005D040F900F900F900F900895FC0132968B
:1016200008962191621303C0DF0111971C92E817FD
:10163000F907B9F7089520910C01222349F120916F
:10164000340227FF25C0E62FE695E695E695EE31B4
:1016500070F4E80FF92FF11D677021E030E001C050
:10166000220F6A95EAF78281822B82830895809106
:101670002E0280FF1EC01F926F938FEC95E09F9308
:101680008F930E945D040F900F900F900F9008951C
:10169000FC0132962FEF30E04191641751F02F3F5B
:1016A00019F4411101C0232F3F5F3630A9F72F3FB6
:1016B00009F40895820F911D27FD9A95FC0162831C
:1016C000089580912E0283FF7EC084E593E00E94FE
:1016D000C403809123021F928F938FE493E09F9322
:1016E0008F930E945D048DE493E00E94C403809177
:1016F0002402282F082E000C330B3F938F938AE48B
:1017000093E09F938F930E945D0488E493E00E948E
:10171000C40380912502282F082E000C330B3F9321
:101720008F9385E493E09F938F930E945D0483E4FD
:1017300093E00E94C40380912602282F082E000CFB
:10174000330B3F938F9380E493E09F938F930E949A
:101750005D048EE393E00E94C40380912702282F4A
:10176000082E000C330B3F938F938BE393E09F93F2
:101770008F930E945D0488E393E00E94C4038091EC
:101780001D021F928F9385E393E09F938F930E9496
:101790005D0483E393E00E94C40380911C021F92C6
:1017A0008F9380E393E09F938F930E945D048DE27B
:1017B00093E00E94C4038DB79EB74C960FB6F89481
:1017C0009EBF0FBE8DBF0E9403069C019091240214
:1017D00080912502982B21F0309321022093200242
:1017E0009091260280912702982B21F030931F02BE
:1017F00020931E02E0912A02F0912B02309749F0CB
:1018000082E0809322020480F581E02D82E292E062
:1018100009940895EF92FF920F931F93CF93DF9354
:101820008091F2019091F101892B9091F001892B27
:10183000809378019091F3019923B1F0892B8093E3
:10184000780180910C01882309F45DC080913402F5
:1018500087FF59C08EE1EAE7F1E090E0815008F09F
:1018600054C091110E943E09E0912A02F0912B028E
:10187000309709F450C080910C01882359F0809171
:10188000340287FF07C0809178018093790186E058
:10189000809378010280F381E02D88E791E009953B
:1018A00080912E0282FF37C080FF04C086ED92E057
:1018B0000E94C403C8E7D1E080E8E82E81E0F82E5A
:1018C00000ED12E080912E0280FF0BC088811F92F4
:1018D0008F931F930F930E945D040F900F900F90B2
:1018E0000F902196EC16FD0669F780912E0280FF7D
:1018F00012C08EEC92E0DF91CF911F910F91FF907B
:10190000EF900C94C40386E0A6CF2191222309F422
:10191000A5CF9F5FA3CFDF91CF911F910F91FF9034
:10192000EF90089590E080E00E94250690E080E02E
:101930000E940F061092F1011092F0010E940A0C11
:1019400086E0E2E2F2E0DF011D928A95E9F710926B
:101950001D0210921B0210921C020C94610B8093CA
:101960006B020C94920C80916B02982F96709630BB
:1019700019F488600C94AF0C877FFCCF21E030E035
:1019800001C0220F8A95EAF7209580916B0282238D
:101990000C94AF0C9091EF01809589238093EF0117
:1019A000282F277091F4282F082E000C330B921744
:1019B000130659F09091350292FD07C085958595E3
:1019C00085950E94BE0C1092EF01089521E030E051
:1019D00001C0220F8A95EAF780916B02822B0C944A
:1019E000AF0C8093F4010C94920C882321F00E9498
:1019F00044090C940A0C0895882339F09091F2015F
:101A0000982B9093F2010C940A0C0895882379F195
:101A10009CEF980F913A38F4682F88E791E00E9484
:101A2000E00A0C940A0C90E2980F983050F48770FA
:101A300091E001C0990F8A95EAF7892F0E94440925
:101A4000F0CF9BE5980F933020F490E080E00C9469
:101A5000250698E5980F973120F490E080E00C94EB
:101A60000F06803F20F00E9447060C94610B0895FA
:101A7000CF93C82F882309F46FC08CEF8C0F813A65
:101A8000C0F580910C01882311F18091340287FF09
:101A90001EC0EC2FE695E695E695F0E0E858FE4F7F
:101AA000828190E04C2F477021E030E002C0220F8D
:101AB000331F4A95E2F782239323892B91F06C2FF1
:101AC00088E791E00E94E00A0E940A0C0AC0EAE757
:101AD000F1E080E891E02191C21789F38E179F070A
:101AE000D1F76C2F88E791E00E941B0BCF910C94EB
:101AF0000A0C80E28C0F883068F4C77021E030E077
:101B000001C0220FCA95EAF78091F201822B8093DF
:101B1000F201ECCFEBE5EC0FE33040F4F0E0E35FF3
:101B2000FE4F808190E0CF910C942506E8E5EC0F04
:101B3000E73150F4F0E0EE0FFF1FE05FFE4F8081D1
:101B40009181CF910C940F06C03F30F08C2F0E94F2
:101B50000207CF910C94610BCF9108951F93CF93FF
:101B6000DF93182FD0E0C0E0893311F4C0E5D0E056
:101B7000812F0E94380D209731F4812FDF91CF9172
:101B80001F910C94060D8FE99FE00197F1F700C0BB
:101B900000002197F0CF0F931F93CF93DF93C62FB1
:101BA000D42F022FFC0182818823A1F060936E0262
:101BB0000E94030690936D0280936C02C77081E0CF
:101BC00001C0880FCA95EAF7DF91CF911F910F915D
:101BD0000C94FC0C80916E02681335C080916C02ED
:101BE00090916D020E94F405883C910560F510E229
:101BF0001D0FCD17B9F080E28C0F883040F4C7700C
:101C000081E001C0880FCA95EAF70E94F50C1830F0
:101C100048F481E09D2F977001C0880F9A95EAF7EC
:101C20000E94FC0C802F0E94AE0D183098F4D770E3
:101C300081E001C0880FDA95EAF7DF91CF911F911B
:101C40000F910C94F50CC77081E001C0880FCA9504
:101C5000EAF7F3CFDF91CF911F910F910895CF93C2
:101C6000DF93CFE7D2E060E0CE010E94702321969F
:101C7000C11584E0D807B9F7DF91CF9108956F922D
:101C80007F928F929F92AF92BF92CF92DF92EF920C
:101C9000FF920F931F93CF93DF9387E7C82E83E0C4
:101CA000D82E9BEDE92EF12CE701C659D10936015A
:101CB0001BC0F50185909490692DC8010E94702386
:101CC000682DC80101960E94702382E0A80EB11C05
:101CD0000E5F1F4FC017D10761F78EE1680E711CB0
:101CE0006E96CE15DF0529F08E010E5111095301B4
:101CF000E0CF7E0186E9E80EF11C86E9C80ED11C12
:101D000083E3E81683E0F80679F6DF91CF911F911F
:101D10000F91FF90EF90DF90CF90BF90AF909F908A
:101D20008F907F906F900895CF93C82F6FEF8111A0
:101D300061E283E290E00E9470236FEFC11162E1E3
:101D400084E290E00E9470236FEFC11161E385E2AD
:101D500090E0CF910C94702380E00E94940E60E09C
:101D600086E290E00E9470230E943F0E0E942F0E98
:101D700081E00C94940ECF93DF93D82FC09135025D
:101D8000C2FB882780F98D1711F1D0FBC2F9C093EF
:101D900035026091340284E090E00E9470236C2F41
:101DA00082E290E00E94702382E00E94CA0C80913F
:101DB0002E0280FF0CC01F92DF9389EB92E09F936D
:101DC0008F930E945D040F900F900F900F90DF9102
:101DD000CF9108950F931F93CF93DF93C42FD0E03B
:101DE000CC0FDD1F2EE1629FC00DD11D112436E9FD
:101DF000839FC00DD11D1124CE0187960E946223BE
:101E0000082F10E0102F0027CE0188960E94622331
:101E10009801282BC901DF91CF911F910F9108954F
:101E2000462F843038F4753028F46F3018F4672F5B
:101E30000C94EA0E90E080E00895CF92DF92FF923A
:101E40000F931F93CF93DF936C0100916B028091EE
:101E5000F401082BC7E0D0E010E0FC2EC8010C2EE6
:101E600002C0959587950A94E2F780FD0CC02197F2
:101E7000A0F7F12C8F2DDF91CF911F910F91FF9043
:101E8000DF90CF900895B6018C2F0E94100F0E9412
:101E9000B607019761F3EECFCF93DF93EC010E9479
:101EA0001D0FBE010E94100FDF91CF910C94B60759
:101EB000FC01808191810E944C0F292F2F709295F7
:101EC0009F7092509E3078F4E92FF0E0ED54FC4D75
:101ED0000C944123803F19F020F4883E20F481E0E7
:101EE0000895843FE1F380E00895883EC0F3813F88
:101EF000D1F7F5CF822F869586958695089583E252
:101F000090E00E946223813289F484E290E00E9492
:101F10006223823159F485E290E00E94622391E0CD
:101F2000813309F090E0892F8170089580E0FCCF23
:101F3000CF9384E090E00E946223C82F82E290E079
:101F40000E946223982F8C2FCF9108951092F20156
:101F500080910C01EAE7F1E0882359F08091340286
:101F600087FF07C08EE1DF011D928A95E9F70C9487
:101F7000920C86E0F8CF1F93CF93DF93CDB7DEB7F7
:101F8000AA970FB6F894DEBF0FBECDBF83E692E0EE
:101F90002091F100DC012D93CD01B2E08B369B073F
:101FA000B9F780916402833009F472C0B8F48130CB
:101FB00009F449C0823009F4B3C08091E80083FF7E
:101FC00091C280916302909164029A3008F08AC2B3
:101FD000E92FF0E0EF53FC4D0C9441238A3009F4D3
:101FE0008EC08B3009F471C0893039F7809163025B
:101FF000813219F78091670290916802009711F081
:102000000297D9F68091E800877F8093E80080915D
:10201000E80082FF38C09091F3008091F2000297AF
:1020200031F48091F100813011F0863021F48091FB
:10203000F10080933E028091E8008B778093E80066
:102040000E94E004BACF80916302813A09F0B5CFD3
:102050008091E800877F8093E800809167029091EB
:102060006802892B61F460E28FE392E070E00E94E5
:1020700092058091E8008B778093E8009ECF60E026
:1020800090E080E0F3CF809161028111C0CF95CFC5
:1020900080916302813A09F090CF8091670290911C
:1020A0006802892B09F089CF8091E800877F8093AF
:1020B000E8008091E80080FFFCCF80910C018093C4
:1020C000F1008091E8008E77B9CF80916302813270
:1020D00009F073CF8091670290916802892B09F013
:1020E0006CCF8091E800877F8093E8000E94E00435
:1020F0008091650280930C010E94A60F5ECF8091B3
:102100006302813209F059CF8091E800877F809384
:10211000E8000E94E0048091660280933D024DCF6A
:1021200080916302813A09F048CF8091E800877F6F
:102130008093E8008091E80080FFFCCF80913D0211
:10214000BECF803899F0823809F0CCC18091670207
:102150008F70873008F0C6C18093E9008091EB0052
:1021600085FB882780F91092E90006C080915F0204
:1021700090916002911182609091E800977F909316
:10218000E8008093F1001092F1008091E8008E77D2
:10219000A5C1882309F493C1823009F0A3C18091BD
:1021A0006502811196C1809167028F702FEF280F11
:1021B000263008F097C18093E9002091EB0020FFC2
:1021C00088C1933031F48091EB0080628093EB0002
:1021D00080C19091EB0090619093EB0021E030E0A2
:1021E00001C0220F8A95EAF72093EA001092EA00D4
:1021F0008091EB008860EACF811174C11091650273
:102200001F778091E3008078812B8093E300809199
:10221000E800877F8093E8000E94E0048091E80056
:1022200080FFFCCF8091E30080688093E30082E030
:10223000111183E08093610255C18058823008F00B
:1022400051C120916502309166022C3DE3E03E07CA
:10225000A1F583E08A838AE289834FB7F894DE018F
:10226000139620E03EE051E2E32FF0E05093570058
:10227000E49120FF03C0E295EF703F5FEF708E2F77
:1022800090E0EA30C0F0C7968D939D932F5F243184
:1022900059F74FBF8091E800877F8093E8006AE29A
:1022A00070E0CE0101960E9492058091E8008B7744
:1022B0008093E80017C1C096E7CF809167029091A4
:1022C0006802432F55274330510509F44AC078F579
:1022D0004130510509F47AC08BE790E0EFE1F6E078
:1022E0004230510509F0FEC02091E800277F20937D
:1022F000E8002091690230916A028217930708F47E
:102300009C0140E02115310509F065C0411163C011
:102310008091E80082FDC9CF80916102882329F273
:10232000853019F28091E80083FFF2CFBECF4132B1
:10233000510509F43CC04232510509F0D3C0843044
:10234000910508F0CFC0FC01EE0FFF1FEA59FE4FC8
:102350000190F081E02D8E599E4FDC018C9190E030
:102360001AC0332721303105D1F02115310561F034
:102370002230310509F0B6C0ECEAF6E0E4918E2F88
:1023800090E0ECEAF6E007C0EAEDF6E0E4918E2F8B
:1023900090E0EAEDF6E0009709F4A4C0A5CFE6ECE2
:1023A000F6E0E4918E2F90E0E6ECF6E0F4CF843096
:1023B000910508F097C0880F991FFC01E259FE4F64
:1023C0000190F081E02D89E090E08ECF82E190E0F5
:1023D000EAE9F6E089CF80916102882309F465CFAC
:1023E000853009F462CF8091E80083FD5ECF809153
:1023F000E80082FD8DCF8091E80080FF83CF90912F
:10240000F3008091F2002115310519F08830910513
:1024100050F041E0089709F040E08091E8008E77A5
:102420008093E8006FCF44914093F10031962150A2
:1024300031090196E8CF803809F054C08091E80056
:10244000877F8093E800809162028093F1009DCEA7
:10245000811148C010916502123008F043C080918C
:10246000E800877F8093E800109362020E94E004F6
:10247000112311F084E005C08091E30087FDFACFBD
:1024800081E08093610242E061EC81E00E94FF0400
:1024900042E261EC84E00E94FF0442E261EC82E0EF
:1024A0000E94FF0442E260EC83E00E94FF0442E2EB
:1024B00061EC85E00E94FF048091610213C080916D
:1024C0006502813079F481E0933009F080E08093F7
:1024D00060021092E9008091E800877F8093E80015
:1024E0000E94E0048091E80083FF0AC08091E80028
:1024F000877F8093E8008091EB0080628093EB00FF
:10250000AA960FB6F894DEBF0FBECDBFDF91CF9174
:102510001F91089569EE7EEF90E080E00E948E2387
:1025200060E082E090E00E94702360E083E090E051
:102530000E9470231092F40160E084E090E00E9419
:10254000702360E082E290E00E94702360E085E00A
:1025500090E00E94702360E086E090E00E9470238B
:102560006FEF87E090E00E94702340E050E0BA01F6
:1025700088E090E00E94822360E08DE090E00E947D
:10258000702340E050E0BA0188E190E00E9482238D
:1025900060E087E190E00E94702340E050E0BA01E3
:1025A0008CE190E00E94822370E060E080E290E0A5
:1025B0000E948E2340E050E0BA0188E190E00E9442
:1025C000822380E00E94940E0E94AC0E40E050E016
:1025D000BA018FE090E00E94822340E050E0BA010F
:1025E00083E190E00C9482233F924F925F926F922E
:1025F0007F928F929F92AF92BF92CF92DF92EF9293
:10260000FF920F931F93CF93DF9300D000D00F92D0
:10261000CDB7DEB78C01FC0183819481892B31F029
:102620008081918189238F3F09F081C50F900F90A0
:102630000F900F900F90DF91CF911F910F91FF900E
:10264000EF90DF90CF90BF90AF909F908F907F9052
:102650006F905F904F903F9008950E941D0FF82E4D
:10266000682F89819A810E947D0969817A818F2DE5
:102670000E94100F7C01F8018281882309F44AC569
:10268000970122513F452031310508F016C58FEFE3
:1026900093E00E946223FEEEEF0E5FE7852E52E08C
:1026A000952E8823A1F18091EF01877009F4BECFA8
:1026B000F8018281882309F4B9CF8091350282FD27
:1026C000B5CF82E00F900F900F900F900F90DF9199
:1026D000CF911F910F91FF90EF90DF90CF90BF901F
:1026E000AF909F908F907F906F905F904F903F90B2
:1026F0000C94CA0C811424E09206A9F2C4010E9431
:102700006223811101C0EA943FEF831A930AE1101A
:10271000F1CF1C821B82442443944AE0342E74017E
:102720008FEFE81AF80AC4010E94622389831A8293
:10273000882309F4B8CF9FEF980F933000F58A8370
:10274000498292E0890E911CC7010E9462238B830B
:10275000882309F4A8CFFE0131967F01F70120817B
:102760002223E9F2213009F049C091818281913020
:1027700041F4F2E0EF0EF11C0E94AE0D09C04701DA
:10278000EACF923049F422E0E20EF11C0E94380DAB
:102790003FEFE31AF30AE2CF933031F432E0E30E75
:1027A000F11C0E94060DF4CF943021F08FEFE81A4F
:1027B000F80AEECF92E0E90EF11C30E020E0B7011C
:1027C0006F5F7F4FF70141818053990B8A309105EC
:1027D00050F021503109E0F28FE99FE00197F1F7C5
:1027E00000C00000F6CF329EF001339EF00D1124A0
:1027F0009C012E0F3F1F842F7B01E1CFE22FF0E0E1
:10280000EA5EFD4F5490822F86958695869590E0DE
:10281000FC01EA5FFD4F64902770712C022E02C00C
:10282000759467940A94E2F7E1E06E227724FC0144
:10283000EA50FE4FA490B12C022E02C0B594A7948A
:102840000A94E2F7F1E0AF22BB24FC01EA51FE4F0B
:10285000C490D12C02C0D594C7942A95E2F721E008
:10286000C222DD246114710419F081EE0E94380D3A
:10287000A114B10419F086EE0E94380D852D0E9436
:10288000AE0DAB2819F086EE0E94060D672819F0F0
:1028900081EE0E94060DCD2809F47ACF8CE26CCF30
:1028A00081E00E94E60C0E94B30CFDCE81E00E9404
:1028B000BE0CF9CF82E0F5CF95EFE9169CE5F9065D
:1028C00009F46AC008F464C027E245EE66EEF6EF4C
:1028D000EF16FCE5FF0609F419C4882309F438C48F
:1028E00010926E0223E0E2162DE5F20608F05BC0BE
:1028F0003AEFE3163CE5F30630F4C70182509C45FD
:10290000449708F056C00E94980F90933502809328
:10291000340290E1E9169CE5F90609F433C108F0A8
:10292000A5C0F8E0EF16FCE5FF0609F41DC108F0AC
:102930006EC034E0E3163CE5F30609F407C108F085
:1029400050C092E0E9169CE5F90609F4F9C08091BF
:1029500034028260E3E0EE16ECE5FE0609F4F3C013
:1029600060913402F090350284E090E00E94702380
:102970006F2D82E290E00E9470230E94A60F93CEFA
:1029800027E245EE65EEC2C326E241EE60EEBEC32D
:1029900027E245EE64EEBAC326E241EE62EEB6C32C
:1029A00028E241E0EFCF81E6E8168DE5F80609F46C
:1029B000AACFF6E1EF16FCE5FF0609F0D9C3809136
:1029C000F2018A7A91E009F490E09093980169E22B
:1029D000811165E388E791E00E941B0B0E940A0CBD
:1029E00062CE809134028061F6E0EF16FCE5FF06CE
:1029F00009F4A9C080913402886027E0E2162CE532
:102A0000F20608F4A0C08091340280629CC08091DC
:102A100034028D7F3CE0E3163CE5F30609F493C0F5
:102A200078F4809134028C609AE0E9169CE5F9060E
:102A300009F489C008F49CC0809134028E7F83C061
:102A400080913402877FFEE0EF16FCE5FF0609F473
:102A50007AC0809134028B7F2FE0E2162CE5F206DB
:102A600008F471C0809134028F7E6DC03CEFE31694
:102A70003CE5F30609F482C0A0F594E1E9169CE573
:102A8000F90609F493C098F4F2E1EF16FCE5FF06AD
:102A900009F47CC0809134028F7B23E1E2162CE59F
:102AA000F20608F450C080913402837F4CC03AEFA4
:102AB000E3163CE5F30609F44DC008F051C095E17A
:102AC000E9169CE5F90609F04BCF8091340282FBB0
:102AD000992790F921E0922790FB82F990FB83F9E6
:102AE00032C0E114EDE5FE0609F456C0A0F4809171
:102AF000350283602EEFE2162CE5F20671F180912B
:102B000035028D7F3FEFE3163CE5F30630F180910F
:102B100035028C7F22C082E0E8168DE5F80609F4C4
:102B200054C008F44CC0E1E6EE16EDE5FE0609F0EF
:102B300017CF90913402892F8F7E94FF806103C05C
:102B4000809134028160809334020ACF80913402F4
:102B50008460F9CF8091350281608093350200CF87
:102B6000809135028260F9CF809134028064EBCF8E
:102B70000E94A60F809134028068E5CF80913502D3
:102B80008E7FEBCF809134028F7DDDCF0E94A60F28
:102B9000809134028F77D7CF80913502982F90950E
:102BA00091708E7F892B90FB81F9D7CF0E94A60F61
:102BB00090913402892F97FB87F98058C4CF61E048
:102BC0008EE090E00E947023CBCE60E0F9CF0E94AF
:102BD000A60F2FEF34E38CE0215030408040E1F726
:102BE00000C000000E94BC0A86E992E0DFC20E9499
:102BF0008A1259CD8091350282FB882780F991E0B5
:102C000089270E94BB0EF8018281E080F180882331
:102C100009F443C0C7010E941D0FD82E682FC701B9
:102C20000E947D09B7018D2D0E94100F0E94B607EA
:102C30007C01882EF801D280B580B2943FE0B322A7
:102C40008091EF018770C1F0AD2CDD20B1F08F2DA8
:102C5000807F803421F080E28E0D883068F0809192
:102C6000350282FD09C082E00E94CA0C8091EF010A
:102C70008770AA24A3948111A12C9F2C92942FE0F9
:102C80009222FBE0F91508F478C0E92DF0E0E55355
:102C9000FC4D0C94412380E0B4CFC7010E9455093C
:102CA000D82EC0CF2F2D2F70C22E8F2D807F19F0E0
:102CB000C29490EFC922DD20B9F0CC2069F080E207
:102CC0008E0D883010F0811009C08091F201C82A61
:102CD000C092F2010E940A0C8E2D4DC08091F1012C
:102CE000C82AC092F101F6CF8E2D0E94060DCC208D
:102CF00009F443C080E28E0D883010F0811004C0CA
:102D00008C2D0E94440906C0C0948091F101C82214
:102D1000C092F1010E940A0C30C03F2D3F70C32EBB
:102D20008F2D807F803219F0C29480EFC8228820D6
:102D300089F081E0881609F481C0DD2009F48BC098
:102D4000BB2009F481C0F801858180FFC5CF8F7059
:102D500085837AC02091350222FF4DC0DD2009F421
:102D600044C0CC2039F08091F201C82AC092F2010F
:102D70000E940A0C80E00E94380D292D2850330B48
:102D80002430310520F40E943B060E94A909AA20A4
:102D900009F44CCC8091EF0180FD48CCF8011282FF
:102DA0008595859585950E94E60CC8010E94F412D0
:102DB0008091EF018595859585950F900F900F90E7
:102DC0000F900F90DF91CF911F910F91FF90EF9097
:102DD000DF90CF90BF90AF909F908F907F906F903B
:102DE0005F904F903F900C94BE0C80E00E94060DC7
:102DF000CC2019F285CFDD20A1F09091F3018C2D2C
:102E0000892BB11003C00E94FC0CB7CFE1E0BE12C9
:102E1000FACF22FDB2CF981709F4AFCF8093F30118
:102E2000ACCFB11006C00E943E098C2D0E94F50C5B
:102E3000A4CFF1E0BF1609F4A0CFF5CFDD2031F02B
:102E400025E02B1508F499CF8C2DDDCF34E03B1510
:102E500008F493CFEACFBB2041F3F9E38F1209C006
:102E60002FEF37EE83E0215030408040E1F700C083
:102E700000008E2D0E94060D80CF8F2D86958695A1
:102E8000837061F0813009F078CFC7019370D11061
:102E900002C090E080E00E940F066FCFC7019370E0
:102EA000D11002C090E080E00E94250666CF8E2DF2
:102EB000DD2029F00E9402070E94610B5ECF0E9474
:102EC0004706FACF8F2D837091F5D11056CF4E2D36
:102ED000429546954770440F440F8E2D8F70042EF7
:102EE00001C0880F0A94EAF72E2D2071E4FE07C076
:102EF0002FE030E001C0220F4A95EAF720953F2DE0
:102F0000369536953370323069F050F44091F401C3
:102F1000313029F0822B84230E94F10C2ECF842B98
:102F2000822BFACF282B8091F4018227F5CF86954A
:102F3000DD2011F08F2D8170882309F41ECF4E2DD6
:102F4000429546954770440F440F8E2D8F70042E86
:102F500001C0880F0A94EAF72E2D2071E4FE07C005
:102F60002FE030E001C0220F4A95EAF720953F2D6F
:102F7000369536953370323069F050F440916B02DB
:102F8000313029F0822B84230E94AF0CF6CE842BA3
:102F9000822BFACF282B80916B028227F5CF9F2DB1
:102FA0009F70F92EDD2029F0892F0E94E60C8E2DCE
:102FB0002ACF8E2D0E94F50C8F2D0E94BE0CDDCEE7
:102FC0008E2DE2EF8E16B1F1E81570F0F0EF8F164E
:102FD000D1F021EF821691F0DD2009F45EC0B1102E
:102FE0007BCE8F2D8F712AC033EF831651F194EF72
:102FF0008912F2CF8091350282FF2FC08F2D8F7101
:10300000DD20D9F21BC0DD2081F0E4E0EB1508F4EF
:10301000B4CE2F2D2F7181E090E001C0880F2A954A
:10302000EAF790916B028927AFCFF5E0FB1508F422
:10303000A4CEEFCF8F2D8F71D110BFCF0E94E60CA1
:103040009CCE80E0DD2009F49FCF9F2D9F7181E011
:1030500001C0880F9A95EAF797CFDD2099F02F2DC0
:103060002F71F22E822F0E94E60C8091350282FD94
:1030700007C038E0F39EC001112483608093EF0104
:103080008F2DDCCF81E00E94CA0C81E08B1508F007
:1030900074CE82E00E94CA0C70CEBB2059F08933F6
:1030A00009F0E7CE9FEFE7EEF3E09150E040F0400B
:1030B000E1F7DDCE8F2D8F7180CFF0E1EF16FFE5C8
:1030C000FF0609F4EDCB21E1E2162FE5F20609F443
:1030D000F1CB93EFE9169CE5F90609F455CC08F01D
:1030E000EBCBF8EDEF16FCE5FF0609F449CC29ED32
:1030F000E2162CE5F20609F453CC37EDE3163CE575
:10310000F30609F0EACB26E241EE61EEC8010E9427
:10311000CB0DC9CA30E1E3163FE5F30609F4C6CB8F
:1031200091E1E9169FE5F906A1F682E0C0CB85E0C2
:10313000DE01119601900D928A95E1F7F801228146
:1031400089819A81211189CA0E945509F82E8DCA58
:10315000F6E1EF16FCE5FF0609F055CD80919801E8
:1031600069E2811165E388E791E00E94E00A36CCCC
:103170002EEDE2162CE5F20609F439CDD0F4E11477
:103180008CE5F80609F423CD91E0E9169CE5F906F3
:1031900009F039CD90912E02892F8E7F90FF8160AA
:1031A00080932E0280FF20CD88EA92E00E94C40323
:1031B0007ACAEBE5EE16EDE5FE0609F46CCDFCE50A
:1031C000EF16FDE5FF0609F415CD2AE5E2162DE51B
:1031D000F20609F018CD81E014CD1F93CF93DF9351
:1031E0008091BC01807FA9F48091B901882389F086
:1031F0008091EE01D091BD016091B7017091B8014D
:10320000A091BA01B091BB01C62FC72316E0D81315
:1032100004C0DF91CF911F91089590E0109711F0B5
:10322000CF3F19F401968770F2CF189F9001199F34
:10323000300D1124F901E254FE4F41814713F2CFC2
:1032400040814613EFCF42814111ECCF438154813D
:103250004A1B5B0B483C510528F78091BC018F70DD
:1032600080618093BC01F901ED53FE4F80818F7026
:103270008061808387EB91E00E94F412DF91CF910F
:103280001F910C944B09AF92BF92CF92DF92EF92B5
:10329000FF920F931F93CF93DF93CDB7DEB7619764
:1032A0000FB6F894DEBF0FBECDBF8C0185E0F801EC
:1032B000DE011D9601900D928A95E1F7F801E280FA
:1032C00087EBA82E81E0B82E6091BA017091BB0106
:1032D0006115710509F432C19091B7014091B801AF
:1032E000892F84238F3F09F429C120813181C38034
:1032F000D480F090B901F601E61BF70BFF2009F42A
:10330000E8C08091BC01582F507FE83CF10508F0DF
:10331000ABC0511177C0FE2C431321C092131FC0C4
:10332000E1101DC08F7080618093BC01C5010E94B7
:10333000F4128091BC01F80185838F2D61960FB640
:10334000F894DEBF0FBECDBFDF91CF911F910F91DB
:10335000FF90EF90DF90CF90BF90AF900895CD2871
:1033600029F0822F83238F3F09F003C180E0F82FDB
:10337000F170DF2E80FF3CC08091EE014091BD01D5
:1033800056E0841315C02D873E878D859E850E944B
:103390004C0F292F22952F702230F0F0243018F591
:1033A0009F70F1F0F8019581907FD1F4D12C1EC06F
:1033B00090E0589FF001599FF00D1124E254FE4F08
:1033C0006181361306C06081261303C06281E61254
:1033D0000FC001968770D5CF9F7011F0882331F30D
:1033E000805E883018F3C8010E94F412FD2CA5CF2E
:1033F000EE2009F4A2CF8091BC0181608093BC01D2
:10340000F12C9BCF431306C0921304C0F801EE20A9
:1034100009F479C0C8010E94580F882309F1EE20F1
:10342000F9F08091BC01803270F02091B7013091A9
:10343000B80138872F831986DB86CA868C87CE0130
:1034400007960E94F41286E0F801A7EBB1E0019024
:103450000D928A95E1F70E94ED18FF24F3946DCF49
:10346000C8010E94F412F9CF51110AC087EB91E014
:103470000E94F41286E0F50111928A95E9F7C0CF17
:1034800043130FC092130DC0E1100BC0F8018583E8
:10349000C8010E94F41286E0F50111928A95E9F7BD
:1034A0004CCFC8010E94580F8823D1F2EE20C1F200
:1034B0008091BC01803238F22091B7013091B8017F
:1034C0003A8329831B82DD82CC828E83CE010196D2
:1034D000B8CFE83CF105F8F6FE2CEE2009F24313D4
:1034E0001FC092131DC08091BC0180FD10C0982F99
:1034F000907F69F0F8018583903F31F0982F907F9D
:10350000905F8F70892B8583C8010E94F41286E03A
:10351000F801A7EBB1E001900D928A95E1F70DCF8C
:10352000C8010E94580F81118ECF8091BC0181602B
:103530008093BC01C8010E94F412FFCEEE2009F472
:103540008FCFC8010E94580FF82E882309F488CF26
:1035500086E0F801A7EBB1E001900D928A95E1F7C2
:103560008091B7019091B8010E944C0F0E94ED1814
:10357000E4CE81E08E25FBCE1F93CF93DF93CDB7B2
:10358000DEB767970FB6F894DEBF0FBECDBF4B8B8B
:103590005C8B6D8B7E8B8F8B61111092F1011A8A7F
:1035A000198A85E0FE017396DE011D9601900D9249
:1035B0008A95E1F786E0FE013D96DE0117960190BF
:1035C0000D928A95E1F7CE0107960E944319882350
:1035D00089F016E08091EE019091BD01891349C0F8
:1035E00067960FB6F894DEBF0FBECDBFDF91CF91C7
:1035F0001F91089586E0FE013796DE011196019035
:103600000D928A95E1F78A859B85892B11F38F812D
:10361000988589238F3FE9F22091BD0130E0C901EF
:103620000196877099274091EE014817190671F4A9
:103630000E94A60F1092BD011092EE0186E0E7EB0A
:10364000F1E0DF011D928A95E9F7C3CF96E0929FE2
:10365000D001939FB00D1124A254BE4FFE013196AC
:1036600001900D929A95E1F78093BD010E944B095C
:10367000B0CF819FC001112482549E4F0E944319F4
:10368000882309F4ADCF8091EE0190E00196877018
:1036900099278093EE019ECF6F927F928F929F9297
:1036A000AF92BF92CF92DF92EF92FF920F931F9350
:1036B000CF93DF93CDB7DEB72F970FB6F894DEBF69
:1036C0000FBECDBF8E010F5F1F4F8AE0F801119230
:1036D0008A95E9F79EE3E92E91E0F92E68016624C8
:1036E0006394712C32E5832E31E0932EF7018191A2
:1036F0007F018F3F09F445C0F894E82FE295EF7001
:10370000F0E021A18F70A30102C0440F551F8A95DC
:10371000E2F7CA01922F982B91A392A18095892359
:1037200082A3789400C0E3E4F1E021E030E0B12C22
:10373000A12C41914F3F09F480C0A42FA295AF70F6
:10374000B0E090968C9190E04F7002C0959587956F
:103750004A95E2F780FD71C0C901A82AB92A220F53
:10376000331F8E169F0629F7F701319780818F3F0F
:1037700011F00E945C0750EA5A95F1F7F601B18208
:10378000A082F2E0CF0ED11C43E4E41641E0F4063F
:1037900009F0ACCF4AE050E0B80188EF91E00E9418
:1037A000A423FF24F394009709F4F12C892B09F446
:1037B00047C08AE0F801A8EFB1E001900D928A9528
:1037C000E1F781E08093F7010E9403069093F601F0
:1037D0008093F5018091F5019091F6010E94F40526
:1037E000059790F18091F8019091F9019093120260
:1037F000809311028091FA019091FB019093140241
:10380000809313028091FC019091FD019093160228
:10381000809315028091FE019091FF019093180210
:1038200080931702809100029091010290931A02F6
:10383000809319021092F70107C090E080E08DCFCD
:103840008091F7018111C6CF809102028823A9F0EF
:10385000869549F185E08B8784E08C871D860E94E0
:1038600003068160782F9F878E87109202024B8516
:103870005C856D858F850E94BC1A8F2D2F960FB6A3
:10388000F894DEBF0FBECDBFDF91CF911F910F9196
:10389000FF90EF90DF90CF90BF90AF909F908F9070
:1038A0007F906F90089583E0D6CF1F920F920FB64E
:1038B0000F9211242F933F934F935F936F937F93B6
:1038C0008F939F93AF93BF93CF93DF93EF93FF9328
:1038D000D091E900DF708091EC00C82FC17080FDAD
:1038E000C0E81092E9008091F000877F8093F0009B
:1038F00078940E94BB0F1092E9008091F0008860DC
:103900008093F000CD2BCF70C093E900FF91EF9131
:10391000DF91CF91BF91AF919F918F917F916F91E7
:103920005F914F913F912F910F900FBE0F901F907D
:1039300018951F920F920FB60F9211242F933F9359
:103940004F935F936F937F938F939F93AF93BF93A7
:10395000EF93FF938091E10082FF15C08091E20018
:1039600082FF11C08091E1008B7F8093E100209164
:103970003B022F5F822F62E30E942123992309F4E7
:10398000C0C020933B028091DA0080FF28C0809164
:10399000D80080FF24C08091DA008E7F8093DA0007
:1039A0008091D90080FFE3C080E189BD82E189BDBB
:1039B00009B400FEFDCF81E0809361028BE096E0C8
:1039C0000E94C40380913C02811109C00E946604D8
:1039D0000E9431058091E20084608093E200809132
:1039E000E10080FF1BC08091E20080FF17C0809142
:1039F000E2008E7F8093E2008091E20080618093FC
:103A0000E2008091D80080628093D80019BC85E0E4
:103A10008093610283E196E00E94C4038091E100FB
:103A200084FF2FC08091E20084FF2BC080E189BD1C
:103A300082E189BD89B5982F917080FFFBCF80917D
:103A4000D8008F7D8093D8008091E1008F7E809395
:103A5000E1008091E2008F7E8093E2008091E2009D
:103A600081608093E20080916202882309F489C01A
:103A700084E08093610287E196E00E94C403809114
:103A800061028091E10083FF2BC08091E20083FFFF
:103A900027C08091E100877F8093E10082E08093DE
:103AA0006102109262028091E1008E7F8093E100BA
:103AB0008091E2008E7F8093E2008091E20080613D
:103AC0008093E20042E060E080E00E94FF04809189
:103AD000F00088608093F0008BE196E00E94C403C0
:103AE000FF91EF91BF91AF919F918F917F916F91D6
:103AF0005F914F913F912F910F900FBE0F901F90AC
:103B0000189510923B0280913A02882309F43BCF2A
:103B1000809161028430C1F49091E9009F702091FE
:103B2000EC00822F817020FD80E8892B95E0909336
:103B3000E9009091EB0090FF04C09091EE0097FD9A
:103B400008C08F708093E90010923A021CCF109247
:103B5000F1009091E80095FDFACF9091E80090FF78
:103B6000F0CF9091E8009E779093E800EACF19BCDF
:103B7000109261028FE096E00E94C40310923C0212
:103B80002ECF8091E30087FD93E09093610273CF85
:103B900078941F921FB61F9211248F939F93AF9317
:103BA000BF938091300290913102A0913202B09186
:103BB00033020196A11DB11D809330029093310212
:103BC000A0933202B0933302BF91AF919F918F9136
:103BD0001F901FBE1F9018951F921FB61F92112491
:103BE0008F939F93AF93BF9380912F02811113C046
:103BF0008091300290913102A0913202B091330253
:103C00004196A11DB11D8093300290933102A09383
:103C10003202B0933302BF91AF919F918F911F9069
:103C20001FBE1F901895CDB7DEB7AD970FB6F894AD
:103C3000DEBF0FBECDBF84B7877F84BF0FB6F894B9
:103C4000A895809160008861809360001092600068
:103C50000FBE80E890E00FB6F894809361009093D7
:103C600061000FBE85B7806885BF85B7806885BF56
:103C700087EC99E090937701809376010E94660427
:103C80000E9431058091E20084608093E200789484
:103C9000809161028823A1F01091E9001F7090913A
:103CA000EC00892F817090FD80E8182B1092E900BC
:103CB0008091E80083FD0E94BB0F1F701093E90004
:103CC00082E084BD93E095BD9AEF97BD80936E002E
:103CD0000E947F0F811102C00E94AC0E0EE311E022
:103CE000F3E4EF2EF1E0FF2ED8018D918D018F3F8F
:103CF00011F00E945C07E016F106B1F703E411E051
:103D0000E2E5EE2EE1E0FE2EF80181918F018F3F7A
:103D100011F00E945C07E016F106B1F78AE0E1E1DC
:103D2000F2E0DF01282F1D922A95E9F7E8EFF1E094
:103D3000DF011D928A95E9F790E080E00E946A23F6
:103D4000893E9E4F21F40E947F0F811102C00E9484
:103D50008A1282E090E00E94622380932E020E94E9
:103D6000980F90933502809334020E944C1BEFE32E
:103D7000FCE93197F1F700C000000E944C1B8091D4
:103D8000110280FF08C06FEF7FEF90E080E00E949B
:103D90008E230E94BC0A83E090E00E9462230E946E
:103DA000F10C879A8F9A2198299A2098289A83B1A2
:103DB0008695817018995DC090E0892B80930502EB
:103DC00080E091E090932B0280932A02809161021F
:103DD000853089F488EE92E00E94C40300E112E18C
:103DE00080916102853009F446C00E94A60F0E94AE
:103DF0003B060E94A9090E944C1B882359F08FB7EB
:103E0000F8944091300250913102609132027091E9
:103E100033028FBFA7E0B2E0BCA7ABA771E1472E8A
:103E200072E0572E10E000E00DA7F201E190F19052
:103E30002F01ABA5BCA5AD90BD90BCA7ABA7AE14A0
:103E4000BF0409F057C00F5F1F4F0530110561F720
:103E50008FEF8EA38FA318A60E9403068160782F90
:103E60009AA789A74EA15FA168A58AA50E94BC1A3E
:103E700072C092E0A2CF80916102843039F180E07B
:103E80000E94A90910922F0288E190E0A0E40FB6E9
:103E9000F894A895809360000FBEA093600083B74C
:103EA000817F846083BF83B7816083BF7894889566
:103EB00083B78E7F83BF0FB6F894A895809160007A
:103EC000886180936000109260000FBE8091600254
:103ED000882309F485CF0E944C1BE1E1F2E0819137
:103EE0009191892B09F084C38BE192E08E179F0793
:103EF000B1F776CF80912E0281FDBDC1AE24BF24E3
:103F000080E0CC24C394D12C95012C213D21232B7E
:103F100009F4EDC189A3ADA5AAA3EC20FD2081E0A1
:103F2000EF2809F480E08BA30E9403068160782FBC
:103F30009DA38CA349A15AA16BA18DA10E94BC1A7B
:103F4000000F111FF801E95FFD4F80819181C826A4
:103F5000D926D182C082E0910502EE0FEE0FE093E8
:103F6000050283B181FB662460F81899C7C180E01F
:103F70008629E82BE0930502EF70F0E0EE5AFE4F41
:103F8000808190910402890F8093040220E08230A6
:103F9000D4F0809103028F5F8093030283E08983D2
:103FA00084E08A8311E01B830E9403068160782FDE
:103FB0009D838C831093020249815A816B818D818C
:103FC0000E94BC1A21E0809104028F3FDCF48091B2
:103FD000030281508093030285E0898384E08A8311
:103FE00081E08B830E9403068160782F9D838C8300
:103FF00082E08093020249815A816B818D810E9407
:10400000BC1A21E080910402082E000C990B62E09A
:1040100070E00E942D2380930402222359F08FB771
:10402000F8944091300250913102609132027091C7
:1040300033028FBF86E0E2E2F2E0DE0111960190EA
:104040000D928A95E1F7F0902402E09025021091FC
:10405000260200912702109224021092250210924B
:104060002602109227028F2D8E2909F448C08091D4
:104070002002909121020E94F4059C0190911D0262
:10408000992309F4D9C223333105C8F19F3F19F0B0
:104090009F5F90931D02FF2059F00E94E2069FEF60
:1040A0001F140CF491E0899F802D11248093240229
:1040B000EE2059F00E94E2069FEF1E140CF491E0EE
:1040C000899F802D1124809325023091240233236F
:1040D000B1F020912502222391F045EB3403C00179
:1040E0001124992309F40DC19093240245EB240374
:1040F00090011124332309F408C130932502812F44
:10410000802B09F448C080911E0290911F020E94EA
:10411000F4059C0190911B02992309F488C225366D
:104120003105C8F19F3F19F09F5F90931B02112347
:1041300059F00E94C0069FEF11160CF491E0899F80
:10414000802D112480932602002359F00E94C0067E
:104150009FEF10160CF491E0899F802D112480931D
:104160002702309126023323B1F020912702222327
:1041700091F045EB3403C0011124992309F4C9C01F
:104180009093260245EB240390011124332309F474
:10419000C4C0309327028091240290912502892B7C
:1041A00090912602892B90912702892B11F00E9471
:1041B000610B86E0FE013196A2E2B2E001900D9221
:1041C0008A95E1F70E943B0690910602891751F10A
:1041D0000E943B06182F8093060280912E0282FFD8
:1041E0001EC080FF1CC08AE193E00E94C40380913E
:1041F0002E0280FF14C01F921F9385E193E09F93CE
:104200008F930E945D0480912E020F900F900F906B
:104210000F9080FF04C083E193E00E94C403812FCC
:104220000E94A90980916102843009F0CFCD83E01A
:104230008093E9008091E80082FFC8CD8091E8007A
:1042400090E085FF06C00E948504882309F469C0B8
:1042500091E08091E8008B778093E800992309F43E
:10426000B5CDE981E150E33108F0F8C0F0E0E95262
:10427000FC4D0C9441238CEF92E00E94C40351E169
:10428000852E52E0952ED12CC12CDF92CF92E7EFF4
:10429000F2E0FF93EF930E945D0484EF92E00E94AE
:1042A000C403D4018C9111962C90B2E08B0E911C1A
:1042B0000E94AF09382E822D0E94AF093F928F9342
:1042C000EEEEF2E0FF93EF930E945D048CEE92E03D
:1042D0000E94C4034FEFC41AD40A0FB6F894DEBF8D
:1042E0000FBECDBF95E0C916D10479F607CE8F5F1A
:1042F000CC0CDD1C8F3009F007CEA5CD82E090E01C
:1043000037CE81E080932402F1CE81E080932502B4
:10431000F6CE81E08093260235CF81E0809327029C
:104320003ACF00E210E0CE0101967C018091E800D6
:1043300085FD0AC08091E8008B778093E8000E9499
:104340008504882399F384CF8091F100D7018D9360
:104350007D010150110951F77BCF1A8289E08B83CF
:104360001AC08A81823009F459C18330D9F1813071
:1043700009F074C02FB7F894609130027091310247
:1043800080913202909133022FBF0E9447236B83AA
:104390007C838D839E8380916102843009F016CDE9
:1043A0001091E9001F709091EC00892F817090FDB1
:1043B00080E8182B82E08093E9008091E80080FF7C
:1043C0000DC050E040E060E270E0CE0101960E9436
:1043D000B6048091E8008E778093E8001F701093F8
:1043E000E900F4CC8091110290911202982789275C
:1043F00098279C838B8380911302909114029827B5
:10440000892798279E838D838091150290911602AB
:1044100098278927982798878F83809117029091F2
:1044200018029827892798279A87898780911902E7
:1044300090911A029827892798279C878B87ABCF62
:104440008A81823059F46B817C818D819E810E94AA
:10445000472386E290E00E9470239DCF8FEF8983EF
:104460009ACF4C816B818A810E94EA0E9827892716
:1044700098279E838D838FCFED80FE80FE24EF24CE
:10448000FE248A810B81BEE10B9F80011124E6E9A5
:104490008E9F000D111D11248C8190E0880F991FB3
:1044A000080F191F6F2DC80187960E9470236E2D6B
:1044B000C8018896D0CF0E943F0E6DCF80E18A83DD
:1044C0006ACF81E08A8381E84ACF0A811B81102765
:1044D00001271027CE0101967C01CC80DC01AC0DB8
:1044E000B11D6D01C80181589D4FEC14FD0409F404
:1044F00052CF0138B1E01B0750F40E946223F7014C
:1045000084830F5F1F4FBFEFEB1AFB0AEBCFD7017E
:1045100014961C92F6CF0A811B81102701271027C1
:10452000FE0131966F01EC80E00EF12EF11CC80106
:1045300081589D4F0E151F0509F42DCF0138F1E06C
:104540001F0728F4D60114966C910E947023BFEFC8
:10455000CB1ADB0A0F5F1F4FEACF0E942F0E1BCF33
:1045600084E0ADCF0A811B81102701271027FE01AF
:1045700031967F01CC80CF018C0D911D6C01C8015B
:104580008796EC14FD0409F406CF0835A2E01A075B
:1045900050F40E946223F70184830F5F1F4FBFEF27
:1045A000EB1AFB0AECCFD70114961C92F6CF0A81C6
:1045B0001B81102701271027FE0131966F01EC8027
:1045C000E00EF12EF11CC8018796E016F10609F401
:1045D000E2CE0835F2E01F0728F4D60114966C915C
:1045E0000E947023BFEFCB1ADB0A0F5F1F4FEBCF88
:1045F00009BD19BD09B400FEFDCF8091D8008F7DA3
:104600008093D8008091E00082608093E0008091E8
:10461000E00081FDFCCF0E94A60FE2CB86E290E095
:104620000E9462231B821C821D828E83B4CE2D3297
:10463000314008F079CDAFCD2D32314008F028CD92
:104640005ECD991B79E004C0991F961708F0961B60
:10465000881F7A95C9F78095089597FB072E16F461
:10466000009407D077FD09D00E944E2307FC05D0A7
:104670003EF4909581959F4F0895709561957F4F79
:104680000895EE0FFF1F0590F491E02D099469271E
:10469000962769277827872778270895AA1BBB1BA9
:1046A00051E107C0AA1FBB1FA617B70710F0A61B32
:1046B000B70B881F991F5A95A9F780959095BC0153
:1046C000CD010895F999FECF92BD81BDF89A992741
:1046D00080B50895A8E1B0E042E050E00C94962344
:1046E000262FF999FECF92BD81BDF89A019700B4AB
:1046F000021639F01FBA20BD0FB6F894FA9AF99A4B
:104700000FBE08950396272F0E9471230E947023E5
:10471000252F0E947123242F0C9471230196272F9B
:104720000E9471230C947023DC01CB01FC01F999E8
:10473000FECF06C0F2BDE1BDF89A319600B40D92ED
:1047400041505040B8F70895FB01DC0104C08D9141
:104750000190801921F441505040C8F7881B990BF3
:104760000895F894FFCF6A0F6A0F730F730F750FD8
:10477000730F730F730F6A0F6A0F7A0F730F730F34
:104780007A0FA110C9107212C9107212FC101D11FB
:1047900072121B122812521652168D168D163D17C4
:1047A0005717BD16BD166217CF17E017E017AD21DA
:1047B000B121202231223C225B222E222E222E22C7
:1047C0002E222E225E22612265228B22AD22B02271
:0447D000B222D72218
:1047D400F1057C0A5B0A570A530AF00501818283BA
:1047E400E200E900EA00B500B600B700CD0083019D
:1047F400CC008A01920194012102230224022502A1
:10480400260227022A02B300B4006F007000F0C62B
:1048140095F1F46793929190373332663635349735
:10482400969400FF0100010000FFFF000001000159
:10483400FF004022B622A6018401CE00AC0031065E
:064844004A066A06830625
:00000001FF
